:100000000C94C0000C94DD000C94DD000C94DD0019
:100010000C94DD000C94E6020C94DD000C94DD00E1
:100020000C94DD000C94DD000C94DD000C94DD00DC
:100030000C94DD000C94DD000C9474040C94DD0031
:100040000C945D010C94DD000C94A7010C94CF017D
:100050000C94DD000C94DD000C94DD000C94DD00AC
:100060000C94DD000C94DD0005A84CCDB2D44EB943
:100070003836A9020C50B9918688083CA6AAAA2A4B
:10008000BE000000803F08000000BE922449123EDE
:10009000ABAAAA2ABECDCCCC4C3E00000080BEABA1
:1000A000AAAAAA3E00000000BF000000803F000096
:1000B000000000084178D3BB4387D1133D190E3CA3
:1000C000C3BD4282AD2B3E68EC8276BED98FE1A9DA
:1000D0003E4C80EFFFBE01C4FF7F3F0000000000E8
:1000E0000001020305060741524D3B414E474C4576
:1000F0003B484F52495A4F4E3B4241524F3B4D4174
:10010000473B48454144465245453B4845414441AB
:10011000444A3B00524F4C4C3B50495443483B5996
:1001200041573B414C543B506F733B506F73523BB4
:100130004E6176523B4C4556454C3B4D41473B56F4
:10014000454C3B0000000000250028002B0000006B
:100150000000240027002A0004040404040404040A
:100160000202020202020303030303030102040862
:100170001020408001020408102001020408102011
:1001800011241FBECFEFD8E0DEBFCDBF11E0A0E04D
:10019000B1E0E4E6F3E402C005900D92A435B107A6
:1001A000D9F725E0A4E5B1E001C01D92A438B2075B
:1001B000E1F70E94D1090C94B0210C9400003FB7E4
:1001C000F8948091F5049091F604A091F704B09111
:1001D000F80426B5A89B05C02F3F19F00196A11D74
:1001E000B11D3FBFBA2FA92F982F8827820F911DCD
:1001F000A11DB11DBC01CD0142E0660F771F881F14
:10020000991F4A95D1F708958F929F92AF92BF920E
:10021000CF92DF92EF92FF926B017C010E94DF0090
:100220004B015C01C114D104E104F104F1F00E941E
:10023000DF00DC01CB0188199909AA09BB09883EB6
:100240009340A105B10570F321E0C21AD108E1087D
:10025000F10888EE880E83E0981EA11CB11CC11421
:10026000D104E104F10419F7DDCFFF90EF90DF90A6
:10027000CF90BF90AF909F908F9008958FEF90E0B8
:100280002091BC0027FD18C00197D1F71092BC0047
:100290000E94DF00609354047093550480935604C9
:1002A0009093570480919E0190919F0101969093A5
:1002B0009F0180939E01089508951F920F920FB69B
:1002C0000F9211242F933F938F939F93AF93BF93DC
:1002D0008091F1049091F204A091F304B091F404A0
:1002E0003091F00423E0230F2D3720F40196A11D57
:1002F000B11D05C026E8230F0296A11DB11D209354
:10030000F0048093F1049093F204A093F304B0936B
:10031000F4048091F5049091F604A091F704B09153
:10032000F8040196A11DB11D8093F5049093F60485
:10033000A093F704B093F804BF91AF919F918F9170
:100340003F912F910F900FBE0F901F9018951F9205
:100350000F920FB60F9211242F938F939F93EF93C9
:10036000FF939091C60080915C018F5F803408F00C
:1003700080E020919D01821741F0E0915C01F0E066
:10038000E35AFE4F908380935C01FF91EF919F9120
:100390008F912F910F900FBE0F901F9018951F9265
:1003A0000F920FB60F9211248F939F93EF93FF93A9
:1003B00080915A0190915B01981761F08F5F87FDE2
:1003C00080E0E82FF0E0E059FB4F90819093C60069
:1003D00080935A0190915B01891305C08091C100FF
:1003E0008F7D8093C100FF91EF919F918F910F902E
:1003F0000FBE0F901F901895CF93DF93CCEBD0E0FA
:1004000084E888830E943E018091BB0094E9988330
:10041000DF91CF91089584EC8093BC000E943E014F
:100420008091BB0008958093BB0084E88093BC005A
:100430000C943E010F931F93CF93DF931F92CDB780
:10044000DEB70CEB10E094EAF801908389830E94F8
:100450003E0189818093BB0084E8F80180830F907E
:10046000DF91CF911F910F910C943E01CF93DF93B9
:1004700000D0CDB7DEB7880F4A8369830E941A0285
:100480006981862F0E9413024A81842F0E941302E1
:1004900084E98093BC000F900F90DF91CF91089575
:1004A0004EE264EF87E70E9436028EEE0E941A0247
:1004B00086EF0E94130284E98093BC000895AF92F6
:1004C000BF92CF92DF92EF92FF920F931F93CF9341
:1004D000DF9300D01F92CDB7DEB7182F7901880FB8
:1004E0004A835B8369830E941A026981862F0E9476
:1004F0001302812F880F81600E941A02570181E048
:10050000A81AB1084A81042F5B81152F84E9C82EEF
:100510008FEFA816B806D1F0DD24D394A114B1044E
:1005200019F4D12C84E801C084EC8093BC000E94B3
:100530003E018091BB00D11002C0C092BC00F80106
:1005400081938F01F1E0AF1AB108E2CFC7010F909C
:100550000F900F90DF91CF911F910F91FF90EF902F
:10056000DF90CF90BF90AF90089526E030E044E553
:1005700051E063E08EE10E945F02E5E1F2E0A4E574
:10058000B1E08C9190E0982F882711962C911197CB
:10059000822B9587848714968C91149790E0982FDE
:1005A000882715962C911597822B97878687129608
:1005B0008C91129790E0982F882713962C91822B7C
:1005C000919581959109918B808B08951F920F923F
:1005D0000FB60F9211242F933F934F935F936F9316
:1005E0007F938F939F93AF93BF93CF93DF93EF93BB
:1005F000FF93C9B1D0915304DC270E94DF007894A7
:10060000C0935304D2FF18C0C2FD12C0209143040E
:1006100030914404AB01421B530B9A01455853409F
:100620004331554048F4309305012093040104C040
:100630007093440460934304D4FF18C0C4FD12C0F7
:100640002091450430914604AB01421B530B9A01A3
:10065000455853404331554048F4309309012093A5
:10066000080104C07093460460934504D5FF18C088
:10067000C5FD12C02091470430914804AB01421BD4
:10068000530B9A01455853404331554048F4309339
:100690000B0120930A0104C070934804609347043F
:1006A000D6FF18C0C6FD12C02091490430914A04FB
:1006B000AB01421B530B9A014558534043315540FF
:1006C00048F430930D0120930C0104C070934A0448
:1006D00060934904D7FF17C0C7FD11C020914B0498
:1006E00030914C04621B730BCB01855893408331CE
:1006F000954048F470930F0160930E0104C070930D
:100700004C0460934B04FF91EF91DF91CF91BF9127
:10071000AF919F918F917F916F915F914F913F9199
:100720002F910F900FBE0F901F90189590915B0125
:100730009F5F97FD90E0E92FF0E0E059FB4F808349
:1007400090935B019091E20189278093E2010895E3
:10075000CF93DF93D82FC62F84E20E9496038DE4B7
:100760000E949603D11102C08EE301C081E20E9473
:1007700096031092E2018C2F0E9496038091E00173
:10078000DF91CF910C949603682F80E00C94A8031E
:10079000EF92FF921F93CF93DF9300D0CDB7DEB7D8
:1007A000182F862F69839A830E94C403E12E9A81B1
:1007B000F92E6981160F1E1531F0F70181917F0125
:1007C0000E949603F8CF0F900F90DF91CF911F9169
:1007D000FF90EF900895CF93DF93EC010E94E01D0E
:1007E0000E94C403FE018491882331F0FE018491AC
:1007F0000E9496032196F6CFDF91CF9108951F9323
:10080000CF93DF9300D0CDB7DEB7182F862F798333
:100810009A830E9496037981872F0E949603812FE5
:100820000E9496039A81892F0F900F90DF91CF91AC
:100830001F910C949603E091E10181E08E0F80936B
:10084000E101F0E0E056FE4F80810895EF92FF92C3
:100850001F93CF93DF9300D0CDB7DEB7182F80E082
:1008600069839A830E94C403E12E9A81F92E6981DB
:10087000160F1E1531F00E941B04F70181937F01B2
:10088000F8CF0F900F90DF91CF911F91FF90EF90D5
:100890000895CF93DF930E941B04C82FD0E00E94DD
:1008A0001B0490E0982F88278C0F9D1FDF91CF911C
:1008B0000895CF92DF92EF92FF920E9449046C015B
:1008C000E12CF12C0E944904A0E0B0E0DC01992762
:1008D0008827BC01CD016C0D7D1D8E1D9F1DFF90D5
:1008E000EF90DF90CF9008951F920F920FB60F9266
:1008F00011242F938F939F9380914204811102C002
:10090000409A27C0813069F48091410127B590E079
:10091000820F911D87BD809142048F5F80934204B6
:1009200036C0823019F44098419A13C0833019F4CC
:1009300080914201EBCF843019F44198429A09C06A
:10094000853019F480914301E1CF863029F4429833
:100950002C9A87B58650DECF873071F480914401A0
:1009600027B590E0820F911D87BD809142048F5F73
:10097000809342042C980BC087B5865087BD809128
:100980004204883210F48E5FC9CF109242049F91C6
:100990008F912F910F900FBE0F901F9018958091FF
:1009A00005029091060253E0959587955A95E1F7D7
:1009B00090938900809388008091070290910802AB
:1009C00063E0959587956A95E1F790938B00809306
:1009D0008A008091090290910A0273E095958795AB
:1009E0007A95E1F78093B30080910B0290910C020D
:1009F000E3E095958795EA95E1F78093B400E0E30D
:100A0000F1E020E030E081919191885E93409595EE
:100A1000879595958795D901AF5BBE4F8C932F5FD6
:100A20003F4F2430310579F708952F923F924F922E
:100A30005F926F927F928F929F92AF92BF92CF926E
:100A4000DF92EF92FF920F931F93CF93DF9300D02B
:100A500000D0CDB7DEB78C011B01FC0180809180F6
:100A6000A280B380C480D580E680F7804084518422
:100A700062847384FB012081318142815381C501ED
:100A8000B4010E94482069837A838B839C83F1019F
:100A90002481358146815781C701B6010E944820D3
:100AA0009B01AC0169817A818B819C810E94121E1D
:100AB0009B01AC01C301B2010E94111EF8016087C5
:100AC000718782879387F10120813181428153812F
:100AD000C301B2010E94482069837A838B839C837F
:100AE000F1012085318542855385C701B6010E94F9
:100AF00048209B01AC0169817A818B819C810E9495
:100B0000111E9B01AC01C501B4010E94121EF80127
:100B10006083718382839383F101248135814681CF
:100B20005781C301B2010E9448202B013C01F10111
:100B30002085318542855385C501B4010E94482036
:100B40009B01AC01C301B2010E94121E9B01AC01CA
:100B5000C701B6010E94121EF80164837583868363
:100B600097830F900F900F900F90DF91CF911F916F
:100B70000F91FF90EF90DF90CF90BF90AF909F903C
:100B80008F907F906F905F904F903F902F9008953F
:100B90004F925F926F927F928F929F92AF92BF928D
:100BA000CF92DF92EF92FF92CF93DF9300D000D0ED
:100BB000CDB7DEB76B017C0129013A010E942D1FE0
:100BC0004B015C01C301B2010E942D1F9B01AC01CE
:100BD000C501B4010E94831E4B015C01B701A6014F
:100BE000F7FE07C044275527BA014C195D096E0965
:100BF0007F09D301C20177FE07C088279927DC014E
:100C000084199509A609B709481759076A077B0788
:100C10008CF520E030E44FE054E4C501B4010E94BB
:100C2000482069837A838B839C8329E23CE54FE8E3
:100C30005EE3C501B4010E944820A50194010E9411
:100C4000482020E030E040E85FE30E94121E9B0154
:100C5000AC0169817A818B819C810E94831E0E94F4
:100C6000F51E9B0177FE31C0F7FC2DC09B01285F6C
:100C7000384F2BC020E030E44FE054E4C501B4010C
:100C80000E9448202B013C01A5019401C501B4013B
:100C90000E94482029E23CE54FE85EE30E94121ED4
:100CA0009B01AC01C301B2010E94831E9B01AC01F8
:100CB00060E070E081E694E40E94111E0E94F51E3F
:100CC0009B01F7FE02C028503740C9010F900F90DA
:100CD0000F900F90DF91CF91FF90EF90DF90CF902A
:100CE000BF90AF909F908F907F906F905F904F904C
:100CF0000895613526E47207810591052CF0605A4C
:100D00007C48810991090895603B29EB72072FEF18
:100D10008207920724F4605673478F4F9F4F0895C0
:100D2000CF93DF9380E40E941A0284E30E941302AF
:100D3000C9EFD4E08C850E9413028D850E941302B6
:100D400080E40E941A0287E30E9413028F850E94AA
:100D5000130288890E94130289890E94130280E489
:100D60000E941A028BE30E9413028A890E941302D6
:100D70008B890E9413028C890E94130280E40E94D6
:100D80001A0281E00E94130284E00E94130280E4B0
:100D90000E941A0283E30E94130280E00E94130261
:100DA00080E40E941A0281E30E94130288EC0E94F0
:100DB000130280E0DF91CF910C9413022CE1209379
:100DC000F9049AE09093FA0487E08093FB0420935F
:100DD000FC049093FD048093FE048EE180930E0545
:100DE00080E280930F051092100584E48093FF0445
:100DF0009DE2909300051092010580E48093020526
:100E000089E18093030588E1809304058BE080935A
:100E10000505109206051092070584E180930805E8
:100E200028E02093090590930A059EE090930B0516
:100E300080930C0580E580930D0588E28093110571
:100E40001092140510921505109216058AE58093EC
:100E5000170581E4809318051092190510921A0560
:100E600010921B0582E380931C0510921D05E2E29F
:100E7000F5E01192119285E0E633F807D1F7109270
:100E80001F0510921E051092210510922005109248
:100E900036058AEB94E0909372058093710583EC9C
:100EA0009FEF90933805809337050C949A09CF9261
:100EB000DF92EF92FF920F931F93CF93DF93082F50
:100EC000142FC0E0C62ED12CE12CF12CC11791F0CB
:100ED000D0E0D01739F01D9AC701B6010E94040175
:100EE000DF5FF7CF6CE370E080E090E00E940401E8
:100EF000CF5FECCFDF91CF911F910F91FF90EF90DB
:100F0000DF90CF900895EF92FF920F931F93CF93AE
:100F1000DF9326E030E044E551E063E488E60E9498
:100F20005F028091560190E0982F88272091570109
:100F3000822B959587959595879590932802809318
:100F400027028091540190E0982F88272091550125
:100F5000822B919581959109959587959595879582
:100F600090932A02809329028091580190E0982F53
:100F7000882720915901822B91958195910995950A
:100F800087959595879590932C0280932B0280915D
:100F9000E3019091E401892B09F450C0C4E6D4E048
:100FA00037E2E32E32E0F32E0EE514E02091E30168
:100FB0003091E401211582E0380721F4188219826A
:100FC0001A821B82F70180819181092E000CAA0BE5
:100FD000BB0B488159816A817B81840F951FA61FB5
:100FE000B71F89939993A993B993119211927F0195
:100FF000F801118210822130310589F49F5FAF4FD3
:10100000BF4F29E0B595A795979587952A95D1F774
:101010009183808341E06FE08AE00E9457070E5F72
:101020001F4FF4E0C037DF0709F68091E30190918C
:10103000E40101979093E4018093E301CEE5D4E0CD
:10104000E7E2F2E0A8E5B4E089919991208131814D
:10105000281B390B4D915C911197CA018052934026
:101060002817390734F0805C994F281739070CF49A
:10107000C901819391938D939D9382E0ED32F8079E
:1010800019F7DF91CF911F910F91FF90EF90089585
:101090002F923F924F925F926F927F928F929F9288
:1010A000AF92BF92CF92DF92EF92FF920F931F9376
:1010B000CF93DF93CDB7DEB766970FB6F894DEBF58
:1010C0000FBECDBF109274054BE750E060E170E0B9
:1010D00089EF94E00E94E91DE9EFF4E085E59AE7E5
:1010E0009E0F9E1719F02191820FFBCF90917305EF
:1010F0008913E6C0E0901805F12C009117052BEF3D
:10110000C22E21E0D22E612C712C10E038EA832E01
:1011100034E0932EA12CB12C669C9001679C300D7D
:10112000300D11242F503109E29EC001E39E900D35
:10113000F29E900D11248A509A4F869DD001879D72
:10114000B00D969DB00D112498010E949621A50125
:1011500094010E946021F601219331936F01FFEF0A
:101160006F1A7F0A25E062167104B1F630911C05F2
:101170003D8B04E6031B0B836AE0369FA00111241C
:101180005D834C8380911D0590E024E630E0281BB0
:10119000390BA901330F660B770B4E835F8368878A
:1011A000798700917105109172052AE337E0B90142
:1011B000601B710B7B876A877D89272E312C3194C8
:1011C00021943108E5EEF1E0FA83E983C12CD12CBA
:1011D00076019101032C000C440B550B288B398BA5
:1011E0004A8B5B8B8E8B9C8B8AE0482E512C612C1A
:1011F000712C98EE892E93E0992EA12CB12C12140B
:1012000013042CF02114310421F441E003C04B817C
:1012100001C04D89229CD001239CB00DB00D11243A
:10122000688979898A899B896C0D7D1D8E1D9F1D1A
:101230006C877D878E879F872E893C890E949621A7
:10124000449F90011124032E000C440B550B0E9467
:1012500060216E817F8188859985620F731F841F4D
:10126000951F2C853D854E855F850E940621A30133
:1012700092010E946021AC81BD81A20FB31F2A851B
:101280003B850E947F21A50194010E946021200FCF
:10129000311FE981FA8121933193FA83E983FAE0DE
:1012A0002F0E311C2AE0C20ED11CE11CF11C3EE6BF
:1012B000C316D104E104F10409F0A1CF81E008C014
:1012C00043E064E686E00E9457070E94DE0680E065
:1012D00066960FB6F894DEBF0FBECDBFDF91CF91FB
:1012E0001F910F91FF90EF90DF90CF90BF90AF9044
:1012F0009F908F907F906F905F904F903F902F9036
:101300000895E4E7F5E085E59FE09E0F9E1719F04C
:101310002191820FFBCF8093830540E150E060E094
:1013200070E084E795E00E94F91D41E064E18FE000
:101330000C94570710927405E9EFF4E085E59AE7FD
:101340009E0F9E1719F02191820FFBCF809373059A
:101350004BE750E060E170E089EF94E00E94F91DF6
:101360000C94480890E0FC01E459FE4F2491FC01E4
:10137000E85AFE4F8491882399F090E0880F991FD6
:10138000FC01E25BFE4FA591B491FC01EC5BFE4FCA
:10139000859194918FB7F894EC91E22BEC938FBFE9
:1013A0000895CF93DF93CDB7DEB7E5970FB6F894E6
:1013B000DEBF0FBECDBF789484B5826084BD84B596
:1013C000816084BD85B5826085BD85B5816085BD40
:1013D00080916E00816080936E00109281008091F8
:1013E0008100826080938100809181008160809380
:1013F0008100809180008160809380008091B100A5
:1014000084608093B1008091B00081608093B000CF
:1014100080917A00846080937A0080917A00826063
:1014200080937A0080917A00816080937A00809125
:101430007A00806880937A001092C10082E08093E5
:10144000C0001092C50080E18093C4008091C1006B
:1014500088698093C1008DE00E94B20980E10E94FA
:10146000B20908E211E084E0F82EF00ED8018D9167
:101470008D010E94B209F012F9CF8091800080683E
:1014800080938000809180008062809380008091B2
:10149000B00080688093B0008091B000806280933B
:1014A000B00088EE93E0909306028093050290933B
:1014B00008028093070290930A0280930902909396
:1014C0000C0280930B020E94CF046CE271E080E07A
:1014D00090E00E9404018EE00E94B2098FE00E9419
:1014E000B20980E10E94B2098CE00E94B20914BCEA
:1014F00080916E00826080936E0040E150E060E079
:1015000070E084E795E00E94E91DE4E7F5E085E5F9
:101510009FE09E0F9E1719F02191820FFBCF9091B3
:101520008305891741F01092740588E893E1909340
:101530007605809375050E94480841E068E282E0E4
:101540000E945707E5E4F1E095E09E0F2BB1DF0123
:101550008191822B8BB920916D008C91822B80938D
:101560006D009E13F3CF04E00093680068EC70E018
:1015700080E090E00E94040164E670E080E090E08A
:101580000E940401449845981092B9001CE0109301
:10159000B8000093BC0064E670E080E090E00E9438
:1015A00004011093B80040E86BE688E60E9436021A
:1015B00065E070E080E090E00E94040143E06BE6AB
:1015C00088E60E94360242E06AE188E60E9436021E
:1015D00048E16BE188E60E94360242E067E388E674
:1015E0000E9436026AE070E080E090E00E94040110
:1015F0006AE070E080E090E00E94040126E130E0C3
:1016000042E053E06AEA87E70E945F0282E093E0EB
:10161000FC013196DC01AE17BF0730F42C9130810C
:101620003D9320833197F7CF0296B3E088319B0733
:1016300079F765E070E080E090E00E9404010E948C
:10164000500280913E0490913F04A0914004B091DB
:10165000410488579C4EAF4FBF4F80931F03909318
:101660002003A0932103B093220362E370E080E0A3
:1016700090E00E94040141E160E08EE10E943602A8
:1016800040E461E08EE10E94360241E062E08EE1DA
:101690000E94360264E670E080E090E00E9404015F
:1016A0000E94B502BAE03B2EC12CD12C7601812CD0
:1016B000912C5401412C512C320141E062E08EE129
:1016C0000E94360264E670E080E090E00E9404012F
:1016D0000E94B5026091210270912202CB01072E77
:1016E000000CAA0BBB0B480E591E6A1E7B1E809174
:1016F0002302909124028C01092E000C220B330B43
:10170000800E911EA21EB31E40912502509126020A
:101710008A01052E000C220B330BC00ED11EE21ED7
:10172000F31E9A01841795070CF49C016217730746
:1017300024F46130704F8CF00AC08417950724F4AC
:101740008130904F54F003C04130504F34F03A9400
:101750003110B3CF3324339401C0312C42E160E027
:101760008EE10E943602AAE02A2E41E062E08EE17C
:101770000E94360264E670E080E090E00E9404017E
:101780000E94B5026091210270912202CB01072EC6
:10179000000CAA0BBB0B481A590A6A0A7B0A8091F3
:1017A0002302909124029C01092E000C440B550B3E
:1017B000821A930AA40AB50A409125025091260282
:1017C0008A01052E000C220B330BC01AD10AE20A43
:1017D000F30A9A01841795070CF49C0162177307AA
:1017E00024F46130704F7CF00AC08417950724F40C
:1017F0008130904F44F003C04130504F24F02A9480
:101800002110B3CF01C0312CC301B2010E942D1FA2
:101810009B01AC0160E070EA84E996E40E94831EBB
:10182000DC01CB01BF778093100190931101A0934D
:101830001201B0931301C501B4010E942D1F9B0139
:10184000AC0160E070EA84E996E40E94831EDC014A
:10185000CB01BF778093140190931501A0931601DB
:10186000B0931701C701B6010E942D1F9B01AC0167
:1018700060E070E68AE896E40E94831EDC01CB01FA
:10188000BF778093180190931901A0931A01B09328
:101890001B0140E760E08EE10E94360240E261E019
:1018A0008EE10E94360240E062E08EE10E94360244
:1018B00064E670E080E090E00E94040181E08093A3
:1018C000940231101CC080E090E0A0E8BFE3809358
:1018D000100190931101A0931201B0931301809312
:1018E000140190931501A0931601B09317018093F2
:1018F000180190931901A0931A01B0931B0140E1C4
:101900006CE188E60E943602809115048460809321
:1019100015040E9490060E94DF0070930A046093F1
:10192000090480E092E09093E4018093E30188EC65
:1019300090E0909342038093410380911604806865
:101940008093160480EE90E00AE0080F08AB8091C7
:101950003E0490913F04A0914004B0914104409115
:101960003A0450913B0460913C0470913D04481747
:1019700059076A077B0708F02BC1805E914BAF4F78
:10198000BF4F80933A0490933B04A0933C04B093E0
:101990003D04809183028F5F843019F0809383022D
:1019A00002C0109283020AE411E063E372E0A3E450
:1019B000B2E04AE254E05A0120E030E08091830234
:1019C00090E0DFB6F894F801E1908F01F12CEE0C75
:1019D000FF1CF701E050FF4FE080F180DFBE69019E
:1019E000CC0CDD1CCC0CDD1C8C0D9D1D880F991FB3
:1019F0008D5B9D4FFC01F182E082ED90FC90119790
:101A000012968D919C9113978E0D9F1D1496CD90DB
:101A1000DC9015978C0D9D1D1696ED90FC901797F8
:101A20008E0D9F1D02969695879596958795FB013D
:101A300091838083F501E080F180F3E0EF1AF108F3
:101A40008E159F0538F47C01E2E0EE0EF11CF501E5
:101A5000F182E082F501E080F180F3E0EF0EF11C0D
:101A6000E816F90620F40297F501918380832F5F31
:101A70003F4F6E5F7F4F1896F2E0AF0EB11C2830DB
:101A8000310509F09BCF90E0292F30E0359527955F
:101A900035952795922FDA016D917D91AD016D34C9
:101AA000B4E07B0724F090686C3677400CF49064C7
:101AB000F4E042335F0741F780912904981308C08E
:101AC000809128048A3F30F48F5F8093280402C0FD
:101AD000109228049093290420913004309131040D
:101AE0002D34344004F510921C0410921D04109201
:101AF0001E0410921F0410922004109221041092D0
:101B000022041092230410922404109225041092AF
:101B100026041092270410921904109218041092AF
:101B20001B0410921A04809128048431F1F48091EE
:101B3000150481FF04C09F35C1F48D7F0BC09F3613
:101B4000A1F42091E3013091E401232B31F483FFD0
:101B500004C082608093150408C041E06FEF82E00A
:101B60000E94570781E080938C028091160485FFC4
:101B700029C090911404953028F120910C043091E3
:101B80000D04295D3F4F2F34310508F0E1C5209148
:101B90000E0430910F04295D3F4F2F34310508F0BA
:101BA000D7C582FDD5C5846080931604109240018C
:101BB00080E40E941A0281E00E94130281E00E94E8
:101BC0001302C6C5809116048B7F80931604C0C58E
:101BD00020910B04243018F0245020930B04209102
:101BE0000B04213009F43AC138F0223009F461C302
:101BF000233009F4A8C5ACC521E020930B04409123
:101C0000A5025091A6026091A7027091A8028417C4
:101C10009507A607B70708F421C180569947AE4F2C
:101C2000BF4F8093A5029093A602A093A702B09302
:101C3000A8028CE08093B8000E94B5026091210256
:101C400070912202072E000C880B990B0E942D1F09
:101C50002091100130911101409112015091130116
:101C60000E9448200E94F51E4B015C0170932202E5
:101C7000609321026091230270912402072E000CD0
:101C8000880B990B0E942D1F209114013091150192
:101C900040911601509117010E9448200E94F51EA4
:101CA0006B017C01709324026093230260912502F2
:101CB00070912602072E000C880B990B0E942D1F95
:101CC000209118013091190140911A0150911B0186
:101CD0000E9448200E94F51EAB01BC0150932602D1
:101CE000409325028091170480FF31C08091A502A6
:101CF0009091A602A091A702B091A8028093A102A0
:101D00009093A202A093A302B093A402ABE9B2E025
:101D100005E912E080E090E09C012C583A4FF9016F
:101D2000108617829C012B5E3D4FF9012485358575
:101D30002D933D93F801219331938F0102968630C4
:101D4000910551F7809117048E7F8093170480913D
:101D500094028823F1F080917B0590917C05881A8C
:101D6000990A909222028092210280917D059091A1
:101D70007E05C81AD90AD0922402C092230280910B
:101D80007F0590918005481B590B50932602409384
:101D900025024091A1025091A2026091A30270918C
:101DA000A402411551056105710509F4D1C4809162
:101DB000A5029091A602A091A702B091A802841B4F
:101DC000950BA60BB70B8038934CA94CB14018F576
:101DD0001D9A21E232E0EBE9F2E065E972E0D90117
:101DE0008D919D919D01408151818417950714F437
:101DF00091838083DB014D915C91119748175907BE
:101E000014F48D939C9332966E5F7F4FB2E0E13A6B
:101E1000FB0729F79DC41092A1021092A202109212
:101E2000A3021092A402EBE9F2E025E932E06BE7AD
:101E300075E041915191D9018D919D919D01840F42
:101E4000951F95958795DB018D939D93BD01B2E01C
:101E5000E13AFB0771F70E9481097AC420910B04D3
:101E60002F5F20930B0440911F035091200360913A
:101E700021037091220384179507A607B70708F47A
:101E800018C28059984EAF4FBF4F80931F03909355
:101E90002003A0932103B09322038CE08093B80029
:101EA00080911E0381116EC08FEE0E941A020E9463
:101EB0000B02809319030E94FC018093180344EFE6
:101EC00064EF87E70E9436028EEE0E941A0286EFC8
:101ED0000E94130284E98093BC0081E080931E037A
:101EE000E091FD0221E02E0F253109F420E0409120
:101EF000FE025091FF02609100037091010304E023
:101F0000E09FF0011124E755FD4F40835183628328
:101F1000738380913D0390913E03A0913F03B09164
:101F20004003840F951FA61FB71F14E0219FF001E7
:101F30001124E755FD4F4081518162817381841BDB
:101F4000950BA60BB70B80933D0390933E03A09394
:101F50003F03B09340032093FD0280911F039091B3
:101F60002003A0912103B0912203885F9D4AAF4FC7
:101F7000BF4F80931F0390932003A0932103B0933E
:101F80002203E6C38FEE0E941A020E940B02809386
:101F90001C030E940B0280931B030E94FC01809390
:101FA0001A030E9450022091180330911903A901CD
:101FB00060E070E080910C0390910D039A01AB01F9
:101FC000281B390B41095109A0910A03B0910B0359
:101FD0000E949D216B017C013FE0F594E794D7942A
:101FE000C7943A95D1F76091140370911503CB0112
:101FF000770FAA0BBB0BBC01CD014BE0660F771F1F
:10200000881F991F4A95D1F7209116033091170325
:102010008901330F220B330BA90198012C0D3D1DB3
:102020004E1D5F1D0E946021C20ED31EE41EF51ED0
:10203000AAE0B0E0A70196010E949D21DC01CB013E
:102040000896A11DB11D54E0B595A7959795879564
:102050005A95D1F78093350390933603A0933703B5
:10206000B093380320EAC21A2FE0D20AE108F1083F
:10207000A7019601C701B6010E9406218B019C01B0
:102080006CE035952795179507956A95D1F709A3C3
:102090001AA32BA33CA38090020390900303A0916A
:1020A0000603B0910703A70196010E94A8212B0106
:1020B0003C017DE075946794579447947A95D1F7E5
:1020C000A0910E03B0910F0329A13AA14BA15CA1ED
:1020D0000E94A821BB2797FDB095AB2F840D951DBD
:1020E000A61DB71D0296A11DB11DF2E0B595A795DD
:1020F00097958795FA95D1F79C01AD0130584F4FD0
:102100005F4FA0910803B09109030E949D212B010C
:102110003C01AFE07694679457944794AA95D1F721
:1021200080911A0390911B03A0911C03B0911D0391
:102130008C019D01B5E03695279517950795BA95C1
:10214000D1F70D8F1E8F2F8F38A3092C000CAA08F2
:10215000BB0812E0880C991CAA1CBB1C1A95D1F76D
:10216000A0911003B091110329A13AA14BA15CA148
:102170000E94A8218B019C018BE03595279517952E
:1021800007958A95D1F709A31AA32BA33CA3A09185
:102190000403B0910503A70196010E94A821DC0168
:1021A000CB012BE0B595A795979587952A95D1F703
:1021B00009A11AA12BA13CA1800F911FA21FB31F3F
:1021C000880D991DAA1DBB1D33E0880F991FAA1FFA
:1021D000BB1F3A95D1F7BC01CD016E5F7F4F8F4F8A
:1021E0009F4F24E030E040E050E00E9460218D8D60
:1021F0009E8DAF8DB8A1821B930BA40BB50B9C01D8
:10220000AD01AAE6B8E10E949D2197FD0BC0660FC3
:10221000771F881F991FA30192010E943E21690127
:102220007A010AC0A30192010E943E2169017A014C
:10223000CC0CDD1CEE1CFF1C9927F7FC9A958F2D0A
:102240007E2D6D2D9B01AC010E9406219B01AC01EE
:10225000AEEDBBE00E949D214C01BB2497FCB094E5
:10226000AB2CA3E4B3EEA70196010E94AB21BB27E0
:1022700097FDB095AB2F880D991DAA1DBB1D8153ED
:10228000914FAF4FBF4F14E0B595A79597958795A0
:102290001A95D1F78C0D9D1DAE1DBF1D8093FE02BA
:1022A0009093FF02A0930003B093010310921E03CA
:1022B0004FC280910B048F5F80930B040E94DF005C
:1022C00020914303309144037B01E21AF30AA8EA08
:1022D000EA16A1E6FA0608F436C270934403609346
:1022E0004303009141031091420301151105C1F10F
:1022F00060913D0370913E0380913F0390914003B4
:102300000E942D1F0E9400206093390370933A03AE
:1023100080933B0390933C03809135039091360367
:10232000A0913703B0913803BC01CD016D547549BC
:102330008F4F9F4F0E942D1F2EE83BE24AEE51E443
:102340000E944820609331037093320380933303DB
:1023500090933403015011091093420300934103F9
:1023600060913D0370913E0380913F039091400343
:102370000E942D1F0E9400202B013C012091AA03E6
:102380003091AB034091AC035091AD03A3E0B0E0BA
:102390000E949D214B015C01A301920160913903D0
:1023A00070913A0380913B0390913C030E94111E6F
:1023B0002091310330913203409133035091340323
:1023C0000E9448200E94F51E860E971EA81EB91E68
:1023D000880C991CAA1CBB1C63E0B594A794979425
:1023E00087946A95D1F78092AA039092AB03A0924A
:1023F000AC03B092AD0380918F0390919003A091B4
:102400009103B091920388199909AA09BB09843DE7
:10241000EEEF9E07EFEFAE07BE075CF08D32F1E006
:102420009F07A105B1053CF08CE291E0A0E0B0E08F
:1024300002C084ED9EEF9C01275F3F4F23313105A1
:1024400048F01816190614F40A9706C0009721F0F0
:102450000A9602C080E090E020910205289F80014A
:10246000299F100D1124000F012F001F110B073998
:10247000110514F006E910E00A362FEF120714F4E4
:102480000AE61FEF40910305489F9001499F300DD8
:102490001124C90136E0959587953A95E1F7209189
:1024A0002D0330912E03820F931F813335E793075D
:1024B00014F080E395E7803D4AE8940714F480ED3A
:1024C0009AE890932E0380932D03892F990F990BEF
:1024D0008595080F191FA0911502B0911602209141
:1024E00061033091620340916303509164030E9441
:1024F000A8212B013C01A0911702B0911802209154
:1025000065033091660340916703509168030E9410
:10251000A821460E571E681E791EA0911902B0917F
:102520001A022091690330916A0340916B03509124
:102530006C030E94A821640D751D861D971D0E94C5
:102540002D1F20915103309152034091530350911C
:1025500054030E9448200E94F51E2091150421FD7D
:1025600014C040912B0350912C039A01B3E0359590
:102570002795BA95E1F7DA01A21BB30B9D01260F4F
:10258000371F30932C0320932B0320912B03309182
:102590002C03A3E035952795AA95E1F7AB01421BE3
:1025A000530BCA010F964F9750F0BA011416150637
:1025B0001CF46051710905C0605F7F4F02C060E08C
:1025C00070E08091270390912803A0912903B09196
:1025D0002A03A5019401281B390B4A0B5B0BDA0176
:1025E000C90128E2289F6001299FD00C1124809204
:1025F000270390922803A0922903B0922A03C601D0
:102600003DE2C31631E0D30614F08CE291E06C0198
:10261000843D9E4F24F4F4EDCF2EFEEFDF2EC60155
:102620000996439770F01C141D0424F45AE0C51A4F
:10263000D10809C0C114D10431F08AE0C80ED11C00
:1026400002C0C12CD12C072E000C880B990B0E94C4
:102650002D1F28EA39E840E056E30E9448204B014C
:102660005C01B70180E090E00E942B1F9B01AC0150
:10267000C501B4010E944820209123033091240316
:1026800040912503509126030E94121E26EF38E246
:102690004CE75FE30E9448204B015C01B601DD0C72
:1026A000880B990B0E942D1F2FE832EC45E75CE365
:1026B0000E9448209B01AC01C501B4010E94121E7A
:1026C0006093230370932403809325039093260340
:1026D0000E94F51EAB014C5F5F4F4930510528F455
:1026E0001092AF031092AE030CC0161617061CF41E
:1026F0006550710902C06B5F7F4F7093AF036093A9
:10270000AE03409104052091AE033091AF03429F88
:10271000C001439F900D1124E4E095958795EA95BB
:10272000E1F78739910514F086E990E08A36AFEF3A
:102730009A0714F48AE69FEF081B190B10933003D5
:1027400000932F0305C080910B048F5F80930B04CF
:1027500026E030E044E551E06BE388E60E945F024A
:102760008091540190E0982F882720915501822B69
:1027700091958195910933E0959587953A95E1F783
:1027800090932E0280932D028091560190E0982F15
:10279000882720915701822B91958195910953E0CB
:1027A000959587955A95E1F79093300280932F0283
:1027B0008091580190E0982F882720915901822B11
:1027C00073E0959587957A95E1F79093320280931F
:1027D00031022091CB033091CC032115310509F44E
:1027E00087C0E5E4F3E04DE252E065E775E02115CE
:1027F000B2E03B0721F41082118212821382DA01C7
:102800008D919C91092E000CAA0BBB0BC080D1802E
:10281000E280F3808C0D9D1DAE1DBF1D81939193B1
:10282000A193B193DA011D921D92AD01DB011D92BE
:102830001D92BD01B3E0E135FB07C9F6213031053A
:1028400009F04DC08091450390914603A091470344
:10285000B09148039F5FAF4FBF4FF9E0B595A79583
:1028600097958795FA95D1F790937605809375059E
:102870008091490390914A03A0914B03B0914C037E
:102880009F5FAF4FBF4F19E0B595A7959795879577
:102890001A95D1F7909378058093770580914D0331
:1028A00090914E03A0914F03B09150039F5FAF4FA3
:1028B000BF4F09E0B595A795979587950A95D1F7EC
:1028C000925090937A058093790510921F0510928B
:1028D0001E0510922105109220050E948109809109
:1028E000CB039091CC0301979093CC038093CB03BF
:1028F00080912D0290912E022091750530917605E0
:10290000821B930B90932E0280932D0280912F02B5
:10291000909130022091770530917805821B930BBE
:102920009093300280932F02809131029091320275
:102930002091790530917A05821B930B9093320296
:10294000809331020E94DF006B017C01809185033E
:1029500090918603B601681B790B80E090E00E949D
:102960002B1F29E134E442E951E30E9448202B0166
:102970003C01D0928603C0928503FE0131961F016F
:10298000ECE1EE2EE1E0FE2E05E112E06801812C83
:10299000912C5401D60152966D917C915397072E3C
:1029A000000C880B990B0E942D1FA30192010E941D
:1029B0004820F10161937193819391931F01D70195
:1029C0002D913D914D915C9129A33AA34BA35CA31A
:1029D00064E055954795379527956A95D1F789A174
:1029E0009AA1ABA1BCA1821B930BA40BB50B8D8F3D
:1029F0009E8FAF8FB8A3D60158968D919C91599711
:102A0000092E000CAA0BBB0B2D8D3E8D4F8D58A1AE
:102A1000820F931FA41FB51FF70181939193A19378
:102A2000B1937F0174E0B595A795979587957A95B1
:102A3000D1F7F601819391936F019C01DC010E9413
:102A40007F21860E971EA81EB91EF8E2EF16F1E050
:102A5000FF0609F09FCFBE016F5F7F4F89E793E0CC
:102A60000E941505BE016F5F7F4F8DE693E00E94C7
:102A70001505A4E6B0E0A50194010E949D2120E087
:102A800030E044E050E00E946021590169E4A61A58
:102A9000B108A9E7EA2EA3E0FA2EB1E68B2EB3E047
:102AA0009B2E8DE6C82E83E0D82E95E5292E93E047
:102AB000392E8CE3A816B10440F520E030E046E161
:102AC00054E4D7016D917D918D919C910E94482095
:102AD0002B013C01F80160817181072E000C880BED
:102AE000990B0E942D1F9B01AC01C301B2010E94F2
:102AF000121E20E037E14AED5AE30E944820D70138
:102B00006D937D938D939C931397F70161917191D0
:102B1000819191917F010E94F51ED4016D937D9367
:102B20008D939D934D0120E030E04AE753E4F60198
:102B300060817181828193810E9448202B013C0138
:102B4000D8011C966D917C911D97072E000C880B67
:102B5000990B0E942D1F9B01AC01C301B2010E9481
:102B6000121E20EC3CE842E85BE30E944820F6019C
:102B700061937193819391936F010E94F51ED1012E
:102B80006D937D938D939D931D010E5F1F4FB5E84F
:102B9000EB16B3E0FB0609F08CCF40906903509030
:102BA0006A0360906B0370906C0380911604E1EDF2
:102BB0004E16E1E05E0614F0806801C08F778093C6
:102BC00016048090610390906203A0906303B0901C
:102BD0006403A5019401C501B4010E9406216B01A3
:102BE0007C01A3019201C301B2010E940621970159
:102BF0008601060F171F281F391F0D8F1E8F2F8F5D
:102C000038A320916503309166034091670350918A
:102C1000680329A33AA34BA35CA3CA01B9010E948C
:102C200006210D8D1E8D2F8D38A1600F711F821F03
:102C3000931F0E942D1F6DA37EA38FA398A78DA124
:102C40009EA1AFA1B8A5B595A795979587957FED5E
:102C5000C72E79E5D72E77E3E72E7FE5F72EC81A42
:102C6000D90AEA0AFB0A20E030E040E05FE3C7014E
:102C7000B6010E94482069A77AA78BA79CA7A70145
:102C800096016DA17EA18FA198A50E944820A70161
:102C900096010E9448209B01AC0160E070E080E456
:102CA00090E40E94111E9B01AC0169A57AA58BA539
:102CB0009CA50E9448206093510370935203809317
:102CC000530390935403A3019201C501B4010E94E0
:102CD000C80590930204809301046D8D7E8D8F8DC5
:102CE00098A10E942D1F4B015C01DC01CB01B59521
:102CF000A79597958795FFEDCF2EF9E5DF2EF7E3A2
:102D0000EF2EFFE5FF2EC81AD90AEA0AFB0A20E0D7
:102D100030E040E05FE3C701B6010E9448202B018C
:102D20003C01A7019601C501B4010E944820A701FA
:102D300096010E9448209B01AC0160E070E080E4B5
:102D400090E40E94111E9B01AC01C301B2010E94DC
:102D50004820A50194010E9448200E94F51E9B0175
:102D6000AC0169A17AA18BA19CA10E94C805909396
:102D700004048093030410920604109205040E9438
:102D800083078091270290912802988F8F8B8091E2
:102D9000290290912A029A8F898F80912B0290911B
:102DA0002C029C8F8B8F0E94DF006093D90370935D
:102DB000DA038093DB039093DC032091300430919D
:102DC00031042D3D15E031079CF080911B05203D1D
:102DD00047E0340754F4B9016C5D7540869FA0014B
:102DE000879F500D1124852F869540E8481B01C010
:102DF00040E820901905312C9AE2692E94E0792E52
:102E0000ECE0F4E009EF14E01AA309A3780160E014
:102E100070E05CED452E55E0552E50E8D3010D9144
:102E20001D913D011E8F0D8F0D3D85E0180724F08B
:102E3000003D17406CF009C0C201AD8DBE8D8A1BEC
:102E40009B0B843FB1E09B073CF084EF91E004C012
:102E50008D8D9E8D8C5D95406230710509F467C043
:102E60008C01000F012F001F110B11956801CC0C74
:102E7000DD1CD601A550BE4F8D909C906801CC0CF6
:102E8000DD1CD601A350BE4FCD90DC90C818D908E8
:102E90001695102F0027179507955C01A01AB10A07
:102EA000CA9C8001CB9C100DDA9C100D1124000FE0
:102EB000012F001F110B1195080D191D118300839F
:102EC000829D8001839D100D929D100D1124812FF4
:102ED0008695B52FB81BB49FC0011124880F892F88
:102EE000881F990B9195D7011C91189F6001199F1C
:102EF000D00C1124CC0CCD2CCC1CDD08D1948B0132
:102F000001531C4FD801CC92D7011296DC90D89E69
:102F10008001D99E100D1124000F012F001F110BED
:102F20001195CB0183539C4FDC010C9302C091831C
:102F300080830D8D1E8D0C3D15403CF48081918168
:102F4000919581959109918380836F5F7F4F329630
:102F500093E0E90EF11C6330710509F05FCF2C346A
:102F6000A4E03A073CF0213DB7E03B072CF020ED10
:102F700037E002C02CE434E02C543440AFEFB9E029
:102F80000E94872124E833E040E050E00E943E2187
:102F9000832F9927FC01EE0FFF1FEB51FE4FA081FD
:102FA000B181FC01EE0FFF1FE951FE4F608171817D
:102FB0006A1B7B0B982F88278901081B190B609FC0
:102FC000C001619F900D709F900D1124892F99274A
:102FD000AC014A0F5B1F509313044093120480917D
:102FE0005C0190919D01891B8F73212CA2E03A2EE8
:102FF00008EE13E09FEF980F882309F495C28091A3
:103000005B0120915A01821B8F778F3408F08CC2AC
:1030100020919D01E22FF0E0E35AFE4F8081309134
:103020005C01321731F02F5F203408F020E020934C
:103030009D012091C5033091C6032115310529F466
:1030400021E030E0843271F438C02130310529F4B8
:103050008D3441F422E030E030C02230310541F4BB
:103060008C3319F020E030E028C023E030E025C0A8
:1030700023303105B1F4813428F01092C603109248
:10308000C50350C28093C4031092C3031092E101A0
:103090008093E201E4E0F0E0F093C603E093C5031F
:1030A00041C22430310571F48093E0012091E201A6
:1030B00082278093E20125E030E03093C60320931D
:1030C000C50330C22530310509F02CC2E091C3039D
:1030D0003091C4032091E201E31760F42827209384
:1030E000E20121E02E0F2093C303F0E0E056FE4FF3
:1030F000808318C2281311C28091E001863709F439
:1031000035C108F042C08D3609F405C118F587367F
:1031100009F4F1C098F4853609F4B8C008F0E7C0A6
:10312000843609F0EDC186EE898383E08A831B82B1
:103130001C821D821E821F8267E0D2C0893609F47C
:10314000E6C008F4E0C08C3609F0DAC166E081E040
:1031500094E0D3C1813709F4EAC048F48F3609F40A
:10316000DEC008F0E0C067E083EA93E0C6C18337C1
:1031700009F4F8C008F460C0843709F4DCC085376E
:1031800009F0BEC184E191E0D8C08E3C09F4A5C12C
:10319000E0F48A3CD9F188F4883709F4B0C008F427
:1031A000CFC0883C09F0ACC160E183EB93E00E94A2
:1031B000260482E38093B203A7C18C3C59F108F046
:1031C00083C164E182E295E028C0833D09F45AC0DE
:1031D00040F4803D09F471C118F1813D09F41EC12C
:1031E0008FC1863D09F44AC038F4843D09F088C196
:1031F00068E389E395E011C08A3F09F478C18E3F06
:1032000009F07EC168E087E893E077C16EE189EF5D
:1032100094E003C067E087E195E00E94260474C152
:1032200066E1CE0101960E94260489899A899093CD
:1032300038058093370568C11A821982809171051B
:10324000909172059C838B834AE357E05E834D83A4
:1032500018870F831A8619861C861B861D861E8674
:103260001F86188A80913705909138059A8B898B33
:103270001B8A1C8A1D8A1E8A66E132C060E185E0D5
:1032800092E0CBCF62E080EB93E0C7CF8091070460
:10329000909108049A83898380919E0190919F0167
:1032A0009C838B838FE090E09E838D832091150417
:1032B00025FF19C082E090E0A0E0B0E026FD846028
:1032C0003091160430FD886027FD806121FD81600A
:1032D0008F839887A987BA87809174058B876BE065
:1032E000CE0101960AC180E090E0DC01E7CF62E107
:1032F00085E192E002C160E180E391E0FEC068E315
:1033000089E395E0FAC060E185E092E0F6C060E113
:103310008AE294E0F2C066E08AEA93E0EEC067E0F9
:1033200087E195E0EAC06EE189EF94E0E6C064E1F0
:1033300082E295E0E2C087EE90E00E94EB03E4C0F9
:103340008AE00E94C40380EE882E80E0982EF4016B
:1033500084910E949603FFEF8F1A9F0A28A92811D3
:10336000F6CFD2C068E088E291E0C7C00E941B049B
:10337000982E82E10E94C403911011C0C0909B035B
:10338000D0909C03E0909D03F0909E0340909F039B
:103390005090A0036090A1037090A2031AC030E186
:1033A000931211C0C0909303D0909403E0909503C2
:1033B000F090960340909703509098036090990383
:1033C00070909A0306C0412C512C3201C12CD12C93
:1033D0007601892D0E949603C701B6010E94FF0362
:1033E000C301B2010E94FF0360918F0370919003AB
:1033F00080919103909192030E94FF0380E00E94CC
:10340000960380E00E94960380E00E94960380E08D
:103410000E94960380E00E94960376C00E941B04DF
:1034200089AB0E9459046B017C010E9459042B0155
:103430003C010E9459044B015C010E9449040E9416
:1034400049040E941B0429A9211117C0C0929B03A3
:10345000D0929C03E0929D03F0929E0340929F03C2
:103460005092A0036092A1037092A203809116046F
:103470008D7F80648093160412C02031D1F5C092F4
:103480009303D0929403E0929503F09296034092B6
:103490009703509298036092990370929A03811453
:1034A0009104A104B10429F180928F0390929003BA
:1034B000A0929103B09292031CC08091150481FDEB
:1034C00018C00E94DE0615C08091150481FD11C050
:1034D0003092CC032092CB030CC08091150481FD67
:1034E00008C08091170481608093170402C00E9475
:1034F0009A0980E00E94C40307C00E94C80304C068
:1035000060E081E00E94A8038091E2010E9496039E
:103510008091C10080628093C1001092C603109216
:10352000C50390E0892F66CD8091CB039091CC03A9
:10353000892B31F48091E3019091E401892B11F002
:103540001D9A08C08091150483FD2D988091150463
:1035500081FD2D9A40913E0450913F0460914004BA
:10356000709141048091C7039091C803A091C90351
:10357000B091CA0384179507A607B70710F5909175
:1035800016048091150497FD19C0877F8093150458
:103590001D9A80913E0490913F04A0914004B09107
:1035A000410480569947AE4FBF4F8093C703909315
:1035B000C803A093C903B093CA0303C08860809373
:1035C000150410E00E94DF002091D9033091DA0346
:1035D000621B730B6A38724010F411E0F3CF1111C3
:1035E00009C08091D7039091D80301969093D80396
:1035F0008093D7030E9483077E0157E1E50EF11CFB
:10360000EBE1F2E001ED13E0B3E0CB2ED12CD701DA
:103610002D913D917D0184859585280F391FD80115
:103620008D919C91820F931FB6010E942A21619374
:10363000719335952795D8012D933D938D01B2E077
:10364000E132FB0721F70E94DF0060933E04709394
:103650003F048093400490934104209109043091E9
:103660000A041B01221A330A30920804209207042C
:1036700070930A04609309048091160482FFD9C0F4
:103680006091050470910604072E000C880B990BBD
:103690000E942D1F25E33AEF4EE85CE30E9448208C
:1036A0006B017C010E94B5206D8F7E8F8F8F98A358
:1036B000C701B6010E947E1E2B013C018090FB03D6
:1036C0009090FC036091FF037091000468197909E0
:1036D000072E000C880B990B0E947906092C000C10
:1036E000AA08BB08AB01BC014F315105610571054A
:1036F00024F04EE150E060E070E0423EEFEF5E0704
:103700006E077E0724F442EE5FEF6FEF7FEF840ECB
:10371000951EA61EB71E9092FC038092FB03C090DC
:10372000F903D090FA036091FD037091FE036C19C8
:103730007D09072E000C880B990B0E9479060D2C31
:10374000000CEE08FF08462F572FBC014F315105E2
:103750006105710524F04EE150E060E070E0423E0A
:10376000FFEF5F076F077F0724F442EE5FEF6FEF15
:103770007FEFC40ED51EE61EF71ED092FA03C0924C
:10378000F903B401990C880B990B0E942D1F4B0172
:103790005C01B601DD0C880B990B0E942D1F6B019B
:1037A0007C01A3019201C501B4010E9448206DA3D0
:1037B0007EA38FA398A72D8D3E8D4F8D58A1C70155
:1037C000B6010E9448209B01AC016DA17EA18FA192
:1037D00098A50E94111E20E030E040E251E40E94D2
:1037E000831E0E94F51E7093F6036093F5032D8DE2
:1037F0003E8D4F8D58A1C501B4010E9448204B0158
:103800005C01A3019201C701B6010E9448209B01FF
:10381000AC01C501B4010E94121E20E030E040E27C
:1038200051E40E94831E0E94F51E7093F80360937A
:10383000F7038FEF9FEFB10154E0769567955A95A6
:10384000E1F70E9416217FA76EA76CE1662E64E067
:10385000762E0FEE13E01EA30DA379EE472E73E034
:10386000572EE3EE8E2EE3E09E2E0DED13E01AA709
:1038700009A700E010E01D8EF8EEAF2EF3E0BF2E9A
:103880002D8D2230B9F1F801E45FFB4FA081B181A9
:10389000AA0FBB1FF801EB50FC4F80819181A80F4C
:1038A000B91FA53F31E0B30714F0A4EFB1E0AC308D
:1038B0004EEFB40714F4ACE0BEEFF801EF5FFB4F3E
:1038C00080819181A81BB90BF801E750FB4F85A1BE
:1038D00096A1A80FB91F20910E0530E00E949621F5
:1038E000DC01CB0134E0B595A795979587953A957E
:1038F000D1F714C020911A0530E0255E3F4FA0910A
:103900001004B09111040E947F21DC01CB0125E05D
:10391000B595A795979587952A95D1F7FC01D8017C
:10392000AB5EBD4F16968D919C911797E81BF90BD6
:10393000A9A1BAA1BC91BDA79101DF010E94962166
:103940009B01AC018BE055954795379527958A9556
:10395000D1F7A9A1BAA111968C91A82FB0E00E942D
:103960009D21D301CD90DD90ED90FC90C60ED71E29
:10397000E81EF91EB1E0CB16D104B0E2EB06F1046B
:103980002CF0C12CD12CB0E2EB2EF12CC114D104BF
:1039900020EEE2062FEFF20634F4C12CD12CA0EE7B
:1039A000EA2EFF24FA94D301CD92DD92ED92FC929F
:1039B0001397ADA1BEA18D919C9111979F01281BDA
:1039C000390BC901ED93FC932EA53FA5DC010E94A4
:1039D00096219B01AC0166E0559547953795279553
:1039E0006A95D1F72AAB3BAB4CAB5DABD2012D91C5
:1039F0003C91D4014D915C911197420F531F8AA9BC
:103A00009BA9480F591F2D933C93D2018D939C93F2
:103A10006DA5262F30E0DF010E949621DC01CB014D
:103A200077E0B595A795979587957A95D1F7EDE0CD
:103A3000F594E794D794C794EA95D1F7C80ED91EA8
:103A4000A9A1BAA112962C91249FC001259F900D87
:103A50001124892F990F990BC80ED91EE9A5FAA533
:103A6000C192D192FAA7E9A72091120430911304D0
:103A7000309306022093050280910702909108027C
:103A8000821793070CF4C9012091090230910A02B0
:103A9000821793070CF4C90120910B0230910C029C
:103AA000821793070CF4C90140917105509172057A
:103AB000C0903004D0903104E5E0F2E024E0F22E32
:103AC000AAE3B7E0A81BB90B8B3327E0920734F0C9
:103AD000208131812A0F3B1F318320832081318156
:103AE000241735073CF02B3367E0360724F02AE330
:103AF00037E001C09A01318320832CE4C21624E010
:103B0000D20614F451834083FA943296F110DCCF3C
:103B100080912A0490912B0490933101809330017D
:103B2000909333018093320180912E0490912F0461
:103B3000909335018093340180912C0490912D0451
:103B400090933701809336018091150481FD10C058
:103B5000B0920602A0920502B0920802A09207025B
:103B6000B0920A02A0920902B0920C02A0920B023B
:103B70000E94CF043D8D3F5F3D8F0E5F1F4F49A1D7
:103B80005AA14D5F5F4F5AA349A354E0650E711CC3
:103B90008DA19EA102969EA38DA392E0490E511C79
:103BA000A2E08A0E911C333009F06ACE80E090E0EA
:103BB000892B11F40C94A70C0E9400000C94A20C09
:103BC000FC0105900020E9F7809590958E0F9F1FCE
:103BD0000895DC01CB01FC01F999FECF06C0F2BDCE
:103BE000E1BDF89A319600B40D9241505040B8F7BB
:103BF0000895DC01CB0103C02D910E94041E4150A9
:103C00005040D0F70895262FF999FECF1FBA92BDE4
:103C100081BD20BD0FB6F894FA9AF99A0FBE0196AD
:103C200008955058BB27AA270E94291E0C94AA1F4A
:103C30000E94711F38F00E94781F20F039F49F3FD6
:103C400019F426F40C946E1F0EF4E095E7FB0C9427
:103C5000681FE92F0E94CF1F58F3BA176207730736
:103C60008407950720F079F4A6F50C94F11F0EF463
:103C7000E0950B2EBA2FA02D0B01B90190010C017C
:103C8000CA01A0011124FF27591B99F0593F50F494
:103C9000503E68F11A16F040A22F232F342F4427EC
:103CA000585FF3CF469537952795A795F0405395E4
:103CB000C9F77EF41F16BA0B620B730B840BBAF0B4
:103CC0009150A1F0FF0FBB1F661F771F881FC2F71F
:103CD0000EC0BA0F621F731F841F48F48795779533
:103CE0006795B795F7959E3F08F0B0CF9395880FED
:103CF00008F09927EE0F9795879508950E94811FE8
:103D0000E3950C94BB1F0E94971E0C94AA1F0E945F
:103D1000781F58F00E94711F40F029F45F3F29F08E
:103D20000C94681F51110C94F21F0C946E1F0E948A
:103D3000CF1F68F39923B1F3552391F3951B550BCE
:103D4000BB27AA2762177307840738F09F5F5F4F6E
:103D5000220F331F441FAA1FA9F335D00E2E3AF0AD
:103D6000E0E832D091505040E695001CCAF72BD0C5
:103D7000FE2F29D0660F771F881FBB1F2617370716
:103D80004807AB07B0E809F0BB0B802DBF01FF2748
:103D900093585F4F3AF09E3F510578F00C94681F9E
:103DA0000C94F21F5F3FE4F3983ED4F38695779529
:103DB0006795B795F7959F5FC9F7880F911D969501
:103DC000879597F90895E1E0660F771F881FBB1F5D
:103DD000621773078407BA0720F0621B730B840B0A
:103DE000BA0BEE1F88F7E09508950E94FC1E6894B8
:103DF000B1110C94F21F08950E94D71F88F09F57AD
:103E000098F0B92F9927B751B0F0E1F0660F771FFE
:103E1000881F991F1AF0BA95C9F714C0B13091F0F4
:103E20000E94F11FB1E008950C94F11F672F782FC5
:103E30008827B85F39F0B93FCCF3869577956795B9
:103E4000B395D9F73EF490958095709561957F4F25
:103E50008F4F9F4F0895E89409C097FB3EF49095CB
:103E60008095709561957F4F8F4F9F4F9923A9F053
:103E7000F92F96E9BB279395F695879577956795E2
:103E8000B795F111F8CFFAF4BB0F11F460FF1BC026
:103E90006F5F7F4F8F4F9F4F16C0882311F096E9B9
:103EA00011C0772321F09EE8872F762F05C0662367
:103EB00071F096E8862F70E060E02AF09A95660F20
:103EC000771F881FDAF7880F9695879597F90895D9
:103ED00097F99F6780E870E060E008959FEF80ECBD
:103EE000089500240A941616170618060906089560
:103EF00000240A94121613061406050608950C945D
:103F00006E1F0E94D71FD8F3E894E0E0BB279F57AD
:103F1000F0F02AED3FE049EC06C0EE0FBB0F661F44
:103F2000771F881F28F0B23A62077307840728F0CA
:103F3000B25A620B730B840BE3959A9572F7803833
:103F400030F49A95BB0F661F771F881FD2F79048F1
:103F50000C94BF20092E0394000C11F4882352F016
:103F6000BB0F40F4BF2B11F460FF04C06F5F7F4FA5
:103F70008F4F9F4F0895EF93E0FF07C0A2EA2AED0D
:103F80003FE049EC5FEB0E94291E0E94AA1F0F90A0
:103F9000039401FC9058E8E6F0E00C94F22057FD01
:103FA0009058440F551F59F05F3F71F04795880FA7
:103FB00097FB991F61F09F3F79F08795089512163E
:103FC00013061406551FF2CF4695F1DF08C01616EA
:103FD00017061806991FF1CF86957105610508949B
:103FE0000895E894BB2766277727CB0197F90895B2
:103FF00016F00C94BD200C946E1F68940C94681FEE
:104000000E94D71FA8F39923C1F3AEF3DF93CF9398
:104010001F930F93FF92C92FDD2788232AF0219742
:10402000660F771F881FDAF720E030E040E85FEB8B
:104030009FE3883920F0803E38F021968F770E94E8
:10404000121EE6E8F0E004C00E94121EE3EBF0E06E
:104050000E94CB208B01BE01EC01FB2E6F57710932
:104060007595771F880B990B0E942D1F28E132E769
:1040700041E35FE30E945B20AF2D9801AE01FF900A
:104080000F911F91CF91DF910E94291E0C94AA1FBE
:104090000E945B200C94AA1F0E94711F38F00E949E
:1040A000781F20F0952311F00C94681F0C946E1F5C
:1040B00011240C94F21F0E94CF1F70F3959FC1F33F
:1040C000950F50E0551F629FF001729FBB27F00DC6
:1040D000B11D639FAA27F00DB11DAA1F649F66271B
:1040E000B00DA11D661F829F2227B00DA11D621F6A
:1040F000739FB00DA11D621F839FA00D611D221F24
:10410000749F3327A00D611D231F849F600D211D07
:10411000822F762F6A2F11249F5750409AF0F1F08A
:1041200088234AF0EE0FFF1FBB1F661F771F881FF3
:1041300091505040A9F79E3F510580F00C94681FA4
:104140000C94F21F5F3FE4F3983ED4F38695779585
:104150006795B795F795E7959F5FC1F7FE2B880F99
:10416000911D9695879597F908959F930E94811FB9
:104170000F9007FCEE5F0C94BB1F9F3F31F09150F6
:1041800020F4879577956795B795880F911D96953B
:10419000879597F90895DF93CF931F930F93FF921D
:1041A000EF92DF927B018C01689406C0DA2EEF015A
:1041B0000E945B20FE01E894A591259135914591DF
:1041C0005591A6F3EF010E94291EFE019701A80157
:1041D000DA9469F7DF90EF90FF900F911F91CF91E4
:1041E000DF9108959F938F937F936F93FF93EF9346
:1041F0009B01AC010E944820EF91FF910E94CB20CF
:104200002F913F914F915F910C944820DB018F9348
:104210009F930E949D21BF91AF91A29F800D911D00
:10422000A39F900DB29F900D11240895AA1BBB1B54
:1042300051E107C0AA1FBB1FA617B70710F0A61BA6
:10424000B70B881F991F5A95A9F780959095BC01C7
:10425000CD01089597FB072E16F4009407D077FD43
:1042600009D00E94162107FC05D03EF49095819557
:104270009F4F0895709561957F4F0895A1E21A2E82
:10428000AA1BBB1BFD010DC0AA1FBB1FEE1FFF1FFA
:10429000A217B307E407F50720F0A21BB30BE40B4A
:1042A000F50B661F771F881F991F1A9469F7609591
:1042B0007095809590959B01AC01BD01CF0108954B
:1042C000052E97FB1EF400940E94772157FD07D01E
:1042D0000E943E2107FC03D04EF40C9477215095A8
:1042E0004095309521953F4F4F4F5F4F08959095E2
:1042F0008095709561957F4F8F4F9F4F08950E94D5
:104300008721332312F48A1B9B0B0C949821A29FC4
:10431000B001B39FC001A39F700D811D1124911D99
:10432000B29F700D811D1124911D08950E94872157
:10433000B7FF0895821B930B08950E948721A59FC4
:10434000900DB49F900DA49F800D911D1124089590
:10435000B7FF0C949D210E949D21821B930B089511
:04436000F894FFCFFF
:10436400DE05DE05DE05DE05DE05DE05DE05DE0531
:104374000000803F0000803F0000803F00000000FC
:104384000000000001000000090A0B030E0F100CCE
:10439400DC05DC05DC05DC05DC05DC05DC05E80307
:1043A400017D7D7D7D041020408004050602070008
:0443B4000103000001
:00000001FF
