:100000000C94C0000C94DD000C94DD000C94DD0019
:100010000C94DD000C94E6020C94DD000C94DD00E1
:100020000C94DD000C94DD000C94DD000C94DD00DC
:100030000C94DD000C94DD000C9474040C94DD0031
:100040000C945D010C94DD000C94A7010C94CF017D
:100050000C94DD000C94DD000C94DD000C94DD00AC
:100060000C94DD000C94DD0005A84CCDB2D44EB943
:100070003836A9020C50B9918688083CA6AAAA2A4B
:10008000BE000000803F08000000BE922449123EDE
:10009000ABAAAA2ABECDCCCC4C3E00000080BEABA1
:1000A000AAAAAA3E00000000BF000000803F000096
:1000B000000000084178D3BB4387D1133D190E3CA3
:1000C000C3BD4282AD2B3E68EC8276BED98FE1A9DA
:1000D0003E4C80EFFFBE01C4FF7F3F0000000000E8
:1000E0000001020305060741524D3B414E474C4576
:1000F0003B484F52495A4F4E3B4241524F3B4D4174
:10010000473B48454144465245453B4845414441AB
:10011000444A3B00524F4C4C3B50495443483B5996
:1001200041573B414C543B506F733B506F73523BB4
:100130004E6176523B4C4556454C3B4D41473B56F4
:10014000454C3B0000000000250028002B0000006B
:100150000000240027002A0004040404040404040A
:100160000202020202020303030303030102040862
:100170001020408001020408102001020408102011
:1001800011241FBECFEFD8E0DEBFCDBF11E0A0E04D
:10019000B1E0ECE4F2E402C005900D92A035B107A5
:1001A000D9F725E0A0E5B1E001C01D92A038B20763
:1001B000E1F70E94A9090C9424210C9400003FB798
:1001C000F8948091F1049091F204A091F304B0911D
:1001D000F40426B5A89B05C02F3F19F00196A11D78
:1001E000B11D3FBFBA2FA92F982F8827820F911DCD
:1001F000A11DB11DBC01CD0142E0660F771F881F14
:10020000991F4A95D1F708958F929F92AF92BF920E
:10021000CF92DF92EF92FF926B017C010E94DF0090
:100220004B015C01C114D104E104F104F1F00E941E
:10023000DF00DC01CB0188199909AA09BB09883EB6
:100240009340A105B10570F321E0C21AD108E1087D
:10025000F10888EE880E83E0981EA11CB11CC11421
:10026000D104E104F10419F7DDCFFF90EF90DF90A6
:10027000CF90BF90AF909F908F9008958FEF90E0B8
:100280002091BC0027FD18C00197D1F71092BC0047
:100290000E94DF00609350047093510480935204D5
:1002A0009093530480919A0190919B0101969093B1
:1002B0009B0180939A01089508951F920F920FB6A3
:1002C0000F9211242F933F938F939F93AF93BF93DC
:1002D0008091ED049091EE04A091EF04B091F004B0
:1002E0003091EC0423E0230F2D3720F40196A11D5B
:1002F000B11D05C026E8230F0296A11DB11D209354
:10030000EC048093ED049093EE04A093EF04B0937B
:10031000F0048091F1049091F204A091F304B09163
:10032000F4040196A11DB11D8093F1049093F20491
:10033000A093F304B093F404BF91AF919F918F9178
:100340003F912F910F900FBE0F901F9018951F9205
:100350000F920FB60F9211242F938F939F93EF93C9
:10036000FF939091C600809158018F5F803408F010
:1003700080E020919901821741F0E0915801F0E06E
:10038000E75AFE4F908380935801FF91EF919F9120
:100390008F912F910F900FBE0F901F9018951F9265
:1003A0000F920FB60F9211248F939F93EF93FF93A9
:1003B0008091560190915701981761F08F5F87FDEA
:1003C00080E0E82FF0E0E459FB4F90819093C60065
:1003D0008093560190915701891305C08091C10007
:1003E0008F7D8093C100FF91EF919F918F910F902E
:1003F0000FBE0F901F901895CF93DF93CCEBD0E0FA
:1004000084E888830E943E018091BB0094E9988330
:10041000DF91CF91089584EC8093BC000E943E014F
:100420008091BB0008958093BB0084E88093BC005A
:100430000C943E010F931F93CF93DF931F92CDB780
:10044000DEB70CEB10E094EAF801908389830E94F8
:100450003E0189818093BB0084E8F80180830F907E
:10046000DF91CF911F910F910C943E01CF93DF93B9
:1004700000D0CDB7DEB7880F4A8369830E941A0285
:100480006981862F0E9413024A81842F0E941302E1
:1004900084E98093BC000F900F90DF91CF91089575
:1004A0004EE264EF87E70E9436028EEE0E941A0247
:1004B00086EF0E94130284E98093BC000895AF92F6
:1004C000BF92CF92DF92EF92FF920F931F93CF9341
:1004D000DF9300D01F92CDB7DEB7182F7901880FB8
:1004E0004A835B8369830E941A026981862F0E9476
:1004F0001302812F880F81600E941A02570181E048
:10050000A81AB1084A81042F5B81152F84E9C82EEF
:100510008FEFA816B806D1F0DD24D394A114B1044E
:1005200019F4D12C84E801C084EC8093BC000E94B3
:100530003E018091BB00D11002C0C092BC00F80106
:1005400081938F01F1E0AF1AB108E2CFC7010F909C
:100550000F900F90DF91CF911F910F91FF90EF902F
:10056000DF90CF90BF90AF90089526E030E040E557
:1005700051E063E08EE10E945F02E1E1F2E0A0E57C
:10058000B1E08C9190E0982F882711962C911197CB
:10059000822B9587848714968C91149790E0982FDE
:1005A000882715962C911597822B97878687129608
:1005B0008C91129790E0982F882713962C91822B7C
:1005C000919581959109918B808B08951F920F923F
:1005D0000FB60F9211242F933F934F935F936F9316
:1005E0007F938F939F93AF93BF93CF93DF93EF93BB
:1005F000FF93C9B1D0914F04DC270E94DF007894AB
:10060000C0934F04D2FF18C0C2FD12C020913F0416
:1006100030914004AB01421B530B9A0145585340A3
:100620004331554048F4309305012093040104C040
:100630007093400460933F04D4FF18C0C4FD12C0FF
:100640002091410430914204AB01421B530B9A01AB
:10065000455853404331554048F4309309012093A5
:10066000080104C07093420460934104D5FF18C090
:10067000C5FD12C02091430430914404AB01421BDC
:10068000530B9A01455853404331554048F4309339
:100690000B0120930A0104C0709344046093430447
:1006A000D6FF18C0C6FD12C0209145043091460403
:1006B000AB01421B530B9A014558534043315540FF
:1006C00048F430930D0120930C0104C0709346044C
:1006D00060934504D7FF17C0C7FD11C020914704A0
:1006E00030914804621B730BCB01855893408331D2
:1006F000954048F470930F0160930E0104C070930D
:10070000480460934704FF91EF91DF91CF91BF912F
:10071000AF919F918F917F916F915F914F913F9199
:100720002F910F900FBE0F901F9018959091570129
:100730009F5F97FD90E0E92FF0E0E459FB4F808345
:10074000909357019091DE0189278093DE010895EF
:10075000CF93DF93D82FC62F84E20E9496038DE4B7
:100760000E949603D11102C08EE301C081E20E9473
:1007700096031092DE018C2F0E9496038091DC017B
:10078000DF91CF910C949603682F80E00C94A8031E
:10079000EF92FF921F93CF93DF9300D0CDB7DEB7D8
:1007A000182F862F69839A830E94C403E12E9A81B1
:1007B000F92E6981160F1E1531F0F70181917F0125
:1007C0000E949603F8CF0F900F90DF91CF911F9169
:1007D000FF90EF900895CF93DF93EC010E94541D9A
:1007E0000E94C403FE018491882331F0FE018491AC
:1007F0000E9496032196F6CFDF91CF9108951F9323
:10080000CF93DF9300D0CDB7DEB7182F862F798333
:100810009A830E9496037981872F0E949603812FE5
:100820000E9496039A81892F0F900F90DF91CF91AC
:100830001F910C949603E091DD0181E08E0F80936F
:10084000DD01F0E0E456FE4F80810895EF92FF92C3
:100850001F93CF93DF9300D0CDB7DEB7182F80E082
:1008600069839A830E94C403E12E9A81F92E6981DB
:10087000160F1E1531F00E941B04F70181937F01B2
:10088000F8CF0F900F90DF91CF911F91FF90EF90D5
:100890000895CF93DF930E941B04C82FD0E00E94DD
:1008A0001B0490E0982F88278C0F9D1FDF91CF911C
:1008B0000895CF92DF92EF92FF920E9449046C015B
:1008C000E12CF12C0E944904A0E0B0E0DC01992762
:1008D0008827BC01CD016C0D7D1D8E1D9F1DFF90D5
:1008E000EF90DF90CF9008951F920F920FB60F9266
:1008F00011242F938F939F9380913E04811102C006
:10090000409A27C0813069F48091410127B590E079
:10091000820F911D87BD80913E048F5F80933E04BE
:1009200036C0823019F44098419A13C0833019F4CC
:1009300080914201EBCF843019F44198429A09C06A
:10094000853019F480914301E1CF863029F4429833
:100950002C9A87B58650DECF873071F480914401A0
:1009600027B590E0820F911D87BD80913E048F5F77
:1009700080933E042C980BC087B5865087BD80912C
:100980003E04893210F48E5FC9CF10923E049F91CD
:100990008F912F910F900FBE0F901F9018958091FF
:1009A00001029091020233E0959587953A95E1F71F
:1009B0009093890080938800E0E3F1E08191919128
:1009C000885E93409595879595958795809341018D
:1009D00081E0E833F80791F708952F923F924F9204
:1009E0005F926F927F928F929F92AF92BF92CF92BF
:1009F000DF92EF92FF920F931F93CF93DF9300D07C
:100A000000D0CDB7DEB78C011B01FC018080918046
:100A1000A280B380C480D580E680F7804084518472
:100A200062847384FB012081318142815381C5013D
:100A3000B4010E94BC1F69837A838B839C83F1017C
:100A40002481358146815781C701B6010E94BC1FB0
:100A50009B01AC0169817A818B819C810E94861DFA
:100A60009B01AC01C301B2010E94851DF8016087A2
:100A7000718782879387F10120813181428153817F
:100A8000C301B2010E94BC1F69837A838B839C835C
:100A9000F1012085318542855385C701B6010E9449
:100AA000BC1F9B01AC0169817A818B819C810E9472
:100AB000851D9B01AC01C501B4010E94861DF80192
:100AC0006083718382839383F10124813581468120
:100AD0005781C301B2010E94BC1F2B013C01F101EF
:100AE0002085318542855385C501B4010E94BC1F14
:100AF0009B01AC01C301B2010E94861D9B01AC01A8
:100B0000C701B6010E94861DF80164837583868340
:100B100097830F900F900F900F90DF91CF911F91BF
:100B20000F91FF90EF90DF90CF90BF90AF909F908C
:100B30008F907F906F905F904F903F902F9008958F
:100B40004F925F926F927F928F929F92AF92BF92DD
:100B5000CF92DF92EF92FF92CF93DF9300D000D03D
:100B6000CDB7DEB76B017C0129013A010E94A11EBD
:100B70004B015C01C301B2010E94A11E9B01AC01AB
:100B8000C501B4010E94F71D4B015C01B701A6012C
:100B9000F7FE07C044275527BA014C195D096E09B5
:100BA0007F09D301C20177FE07C088279927DC019E
:100BB00084199509A609B709481759076A077B07D9
:100BC0008CF520E030E44FE054E4C501B4010E940C
:100BD000BC1F69837A838B839C8329E23CE54FE8C1
:100BE0005EE3C501B4010E94BC1FA50194010E94EF
:100BF000BC1F20E030E040E85FE30E94861D9B01BF
:100C0000AC0169817A818B819C810E94F71D0E94D1
:100C1000691E9B0177FE31C0F7FC2DC09B01285F48
:100C2000384F2BC020E030E44FE054E4C501B4015C
:100C30000E94BC1F2B013C01A5019401C501B40118
:100C40000E94BC1F29E23CE54FE85EE30E94861D3E
:100C50009B01AC01C301B2010E94F71D9B01AC01D5
:100C600060E070E081E694E40E94851D0E94691EA8
:100C70009B01F7FE02C028503740C9010F900F902A
:100C80000F900F90DF91CF91FF90EF90DF90CF907A
:100C9000BF90AF909F908F907F906F905F904F909C
:100CA0000895613526E47207810591052CF0605A9C
:100CB0007C48810991090895603B29EB72072FEF69
:100CC0008207920724F4605673478F4F9F4F089511
:100CD000CF93DF9380E40E941A0284E30E94130200
:100CE000C5EFD4E08C850E9413028D850E9413020B
:100CF00080E40E941A0287E30E9413028F850E94FB
:100D0000130288890E94130289890E94130280E4D9
:100D10000E941A028BE30E9413028A890E94130226
:100D20008B890E9413028C890E94130280E40E9426
:100D30001A0281E00E94130284E00E94130280E400
:100D40000E941A0283E30E94130280E00E941302B1
:100D500080E40E941A0281E30E94130288EC0E9440
:100D6000130280E0DF91CF910C9413022CE12093C9
:100D7000F5049AE09093F60487E08093F7042093BB
:100D8000F8049093F9048093FA048EE180930A05A5
:100D900080E280930B0510920C0584E48093FB04A1
:100DA0009DE29093FC041092FD0480E48093FE0485
:100DB00089E18093FF0488E1809300058BE08093B4
:100DC0000105109202051092030584E18093040549
:100DD00028E020930505909306059EE09093070573
:100DE0008093080580E58093090588E280930D05CE
:100DF0001092100510921105109212058AE5809349
:100E0000130581E4809314051092150510921605C0
:100E10001092170582E38093180510921905EEE1F0
:100E2000F5E01192119285E0E233F807D1F71092C4
:100E30001B0510921A0510921D0510921C051092A8
:100E400032058AEB94E090936E0580936D0583ECF8
:100E50009FEF90933405809333050C947209CF92E1
:100E6000DF92EF92FF920F931F93CF93DF93082FA0
:100E7000142FC0E0C62ED12CE12CF12CC11791F01B
:100E8000D0E0D01739F01D9AC701B6010E940401C5
:100E9000DF5FF7CF6CE370E080E090E00E94040138
:100EA000CF5FECCFDF91CF911F910F91FF90EF902B
:100EB000DF90CF900895EF92FF920F931F93CF93FF
:100EC000DF9326E030E040E551E063E488E60E94ED
:100ED0005F028091520190E0982F88272091530162
:100EE000822B95958795959587959093240280936D
:100EF00023028091500190E0982F88272091510182
:100F0000822B9195819591099595879595958795D2
:100F100090932602809325028091540190E0982FAF
:100F2000882720915501822B91958195910995955E
:100F300087959595879590932802809327028091B5
:100F4000DF019091E001892B09F450C0C0E6D4E0A4
:100F500033E2E32E32E0F32E0AE514E02091DF01C4
:100F60003091E001211582E0380721F418821982BE
:100F70001A821B82F70180819181092E000CAA0B35
:100F8000BB0B488159816A817B81840F951FA61F05
:100F9000B71F89939993A993B993119211927F01E5
:100FA000F801118210822130310589F49F5FAF4F23
:100FB000BF4F29E0B595A795979587952A95D1F7C5
:100FC0009183808341E06FE08AE00E942F070E5FEB
:100FD0001F4FF4E0CC36DF0709F68091DF019091D6
:100FE000E00101979093E0018093DF01CAE5D4E02E
:100FF000E3E2F2E0A4E5B4E08991999120813181A6
:10100000281B390B4D915C911197CA018052934076
:101010002817390734F0805C994F281739070CF4EA
:10102000C901819391938D939D9382E0E932F807F2
:1010300019F7DF91CF911F910F91FF90EF900895D5
:101040002F923F924F925F926F927F928F929F92D8
:10105000AF92BF92CF92DF92EF92FF920F931F93C6
:10106000CF93DF93CDB7DEB766970FB6F894DEBFA8
:101070000FBECDBF109270054BE750E060E170E00D
:1010800085EF94E00E945D1DE5EFF4E085E59AE7C9
:101090009E0F9E1719F02191820FFBCF90916F0543
:1010A0008913E6C0E0901405F12C0091130527EF99
:1010B000C22E21E0D22E612C712C10E038EA832E52
:1010C00034E0932EA12CB12C669C9001679C300DCE
:1010D000300D11242F503109E29EC001E39E900D86
:1010E000F29E900D11248A509A4F869DD001879DC3
:1010F000B00D969DB00D112498010E940A21A50102
:1011000094010E94D420F601219331936F01FFEFE7
:101110006F1A7F0A25E062167104B1F63091180546
:101120003D8B04E6031B0B836AE0369FA00111246C
:101130005D834C838091190590E024E630E0281B04
:10114000390BA901330F660B770B4E835F836887DA
:10115000798700916D0510916E052AE337E0B9019A
:10116000601B710B7B876A877D89272E312C319418
:1011700021943108E1EEF1E0FA83E983C12CD12C0E
:1011800076019101032C000C440B550B288B398BF5
:101190004A8B5B8B8E8B9C8B8AE0482E512C612C6A
:1011A000712C98EE892E93E0992EA12CB12C12145B
:1011B00013042CF02114310421F441E003C04B81CD
:1011C00001C04D89229CD001239CB00DB00D11248B
:1011D000688979898A899B896C0D7D1D8E1D9F1D6B
:1011E0006C877D878E879F872E893C890E940A2184
:1011F000449F90011124032E000C440B550B0E94B8
:10120000D4206E817F8188859985620F731F841F2A
:10121000951F2C853D854E855F850E947A20A30110
:1012200092010E94D420AC81BD81A20FB31F2A85F8
:101230003B850E94F320A50194010E94D420200F39
:10124000311FE981FA8121933193FA83E983FAE02E
:101250002F0E311C2AE0C20ED11CE11CF11C3EE60F
:10126000C316D104E104F10409F0A1CF81E008C064
:1012700043E064E686E00E942F070E94B60680E005
:1012800066960FB6F894DEBF0FBECDBFDF91CF914B
:101290001F910F91FF90EF90DF90CF90BF90AF9094
:1012A0009F908F907F906F905F904F903F902F9086
:1012B0000895E0E7F5E085E59FE09E0F9E1719F0A1
:1012C0002191820FFBCF80937F0540E150E060E0E9
:1012D00070E080E795E00E946D1D41E064E18FE0E1
:1012E0000C942F0710927005E5EFF4E085E59AE77E
:1012F0009E0F9E1719F02191820FFBCF80936F05EF
:101300004BE750E060E170E085EF94E00E946D1DD6
:101310000C94200890E0FC01E459FE4F2491FC015C
:10132000E85AFE4F8491882399F090E0880F991F26
:10133000FC01E25BFE4FA591B491FC01EC5BFE4F1A
:10134000859194918FB7F894EC91E22BEC938FBF39
:101350000895CF93DF93CDB7DEB7E4970FB6F89437
:10136000DEBF0FBECDBF789484B5826084BD84B5E6
:10137000816084BD85B5826085BD85B5816085BD90
:1013800080916E00816080936E0010928100809148
:1013900081008260809381008091810081608093D0
:1013A0008100809180008160809380008091B100F5
:1013B00084608093B1008091B00081608093B00020
:1013C00080917A00846080937A0080917A008260B4
:1013D00080937A0080917A00816080937A00809176
:1013E0007A00806880937A001092C10082E0809336
:1013F000C0001092C50080E18093C4008091C100BC
:1014000088698093C1008DE00E948A0941E068E20A
:1014100082E00E942F0780E10E948A0980912801C2
:101420000E948A098091800080688093800088EE05
:1014300093E090930202809301020E94CF046CE239
:1014400071E080E090E00E9404018EE00E948A0931
:101450008FE00E948A0980E10E948A098CE00E9444
:101460008A0914BC80916E00826080936E0040E116
:1014700050E060E070E080E795E00E945D1DE0E7ED
:10148000F5E085E59FE09E0F9E1719F02191820FF0
:10149000FBCF90917F05891741F01092700588E885
:1014A00093E190937205809371050E94200841E0BA
:1014B00068E282E00E942F07E2E4F1E095E09E0FEF
:1014C0002BB1DF018191822B8BB920916D008C9122
:1014D000822B80936D009E13F3CF04E0009368008D
:1014E00068EC70E080E090E00E94040164E670E047
:1014F00080E090E00E940401449845981092B90061
:101500001CE01093B8000093BC0064E670E080E03B
:1015100090E00E9404011093B80040E86BE688E672
:101520000E94360265E070E080E090E00E940401D5
:1015300043E06BE688E60E94360242E06AE188E614
:101540000E94360248E16BE188E60E94360242E0E2
:1015500067E388E60E9436026AE070E080E090E08F
:101560000E9404016AE070E080E090E00E940401C3
:1015700026E130E04EEF52E06AEA87E70E945F0220
:101580008EEF92E0FC013196DC01AE17BF0730F41C
:101590002C9130813D9320833197F7CF029603E061
:1015A0008431900779F765E070E080E090E00E9478
:1015B00004010E94500280913A0490913B04A09152
:1015C0003C04B0913D0488579C4EAF4FBF4F809371
:1015D0001B0390931C03A0931D03B0931E0362E3AF
:1015E00070E080E090E00E94040141E160E08EE163
:1015F0000E94360240E461E08EE10E94360241E042
:1016000062E08EE10E94360264E670E080E090E0E5
:101610000E9404010E94B5021AE0312EC12CD12C87
:101620007601812C912C5401412C512C320141E046
:1016300062E08EE10E94360264E670E080E090E0B5
:101640000E9404010E94B50260911D0270911E0269
:10165000CB01072E000CAA0BBB0B480E591E6A1EAD
:101660007B1E80911F02909120028C01092E000C9C
:10167000220B330B800E911EA21EB31E409121023D
:10168000509122028A01052E000C220B330BC00E52
:10169000D11EE21EF31E9A01841795070CF49C01DB
:1016A0006217730724F46130704F8CF00AC08417FE
:1016B000950724F48130904F54F003C04130504FCF
:1016C00034F03A943110B3CF3324339401C0312C29
:1016D00042E160E08EE10E943602BAE02B2E41E04A
:1016E00062E08EE10E94360264E670E080E090E005
:1016F0000E9404010E94B50260911D0270911E02B9
:10170000CB01072E000CAA0BBB0B481A590A6A0A18
:101710007B0A80911F02909120029C01092E000CEF
:10172000440B550B821A930AA40AB50A4091210270
:10173000509122028A01052E000C220B330BC01A95
:10174000D10AE20AF30A9A01841795070CF49C0166
:101750006217730724F46130704F7CF00AC084175D
:10176000950724F48130904F44F003C04130504F2E
:1017700024F02A942110B3CF01C0312CC301B2014F
:101780000E94A11E9B01AC0160E070EA84E996E42E
:101790000E94F71DDC01CB01BF778093100190936D
:1017A0001101A0931201B0931301C501B4010E946D
:1017B000A11E9B01AC0160E070EA84E996E40E94FE
:1017C000F71DDC01CB01BF778093140190931501C5
:1017D000A0931601B0931701C701B6010E94A11E84
:1017E0009B01AC0160E070E68AE896E40E94F71D78
:1017F000DC01CB01BF778093180190931901A0936E
:101800001A01B0931B0140E760E08EE10E943602AE
:1018100040E261E08EE10E94360240E062E08EE14B
:101820000E94360264E670E080E090E00E940401CD
:1018300081E08093900231101CC080E090E0A0E82D
:10184000BFE38093100190931101A0931201B09314
:1018500013018093140190931501A0931601B09386
:1018600017018093180190931901A0931A01B09366
:101870001B0140E16CE188E60E9436028091110470
:101880008460809311040E9468060E94DF007093B8
:1018900006046093050480E092E09093E001809359
:1018A000DF0188EC90E090933E0380933D038091AC
:1018B000120480688093120480EE90E0AAE0CA2EA1
:1018C000C80ECFA680913A0490913B04A0913C04AD
:1018D000B0913D0440913604509137046091380432
:1018E00070913904481759076A077B0708F021C12E
:1018F000805E914BAF4FBF4F809336049093370477
:10190000A0933804B093390480917F028F5F8430B4
:1019100019F080937F0202C010927F02F7E4EF2E4D
:10192000F1E0FF2E0FE212E02FE332E066E274E016
:10193000DB0140E050E0E0917F02AE2EB12CDFB63B
:10194000F894F70181917F0190E0880F991F8050F2
:101950009F4FFC0180819181DFBE6A01CC0CDD1CB0
:10196000CC0CDD1CF501EC0DFD1DEE0FFF1FE15C45
:10197000FD4F91838083F901C080D1808281938162
:101980008C0D9D1DC480D5808C0D9D1DC680D7807B
:101990008C0D9D1D02969695879596958795F801D5
:1019A00091838083ED91FC91119733978E179F0758
:1019B00028F4FC0132961196FC93EE93ED91FC9184
:1019C00011973396E817F90720F4029711969C9324
:1019D0008E934F5F5F4F0E5F1F4F285F3F4F1296F2
:1019E0004830510509F0A7CF90E0292F30E0359518
:1019F000279535952795922FDB014D915D91BD017E
:101A00004D34B4E05B0724F090684C3657400CF43A
:101A10009064F4E06E327F0741F7809125049813BB
:101A200008C0809124048A3F30F48F5F809324049F
:101A300002C0109224049093250420912C0430912C
:101A40002D042D34344004F510921804109219041A
:101A500010921A0410921B0410921C0410921D0480
:101A600010921E0410921F04109220041092210460
:101A70001092220410922304109215041092140460
:101A80001092170410921604809124048431F1F40A
:101A90008091110481FF04C09F35C1F48D7F0BC07C
:101AA0009F36A1F42091DF013091E001232B31F426
:101AB00083FF04C082608093110408C041E06FEF8F
:101AC00082E00E942F0781E08093880280911204B7
:101AD00085FF29C090911004953028F120910804C9
:101AE00030910904295D3F4F2F34310508F0E5C5D9
:101AF00020910A0430910B04295D3F4F2F343105AA
:101B000008F0DBC582FDD9C5846080931204109271
:101B1000400180E40E941A0281E00E94130281E0E9
:101B20000E941302CAC5809112048B7F8093120415
:101B3000C4C520910704243018F0245020930704D2
:101B400020910704213009F43EC138F0223009F415
:101B500067C3233009F4ACC5B0C521E02093070466
:101B60004091A1025091A2026091A3027091A4023F
:101B700084179507A607B70708F425C1805699472B
:101B8000AE4FBF4F8093A1029093A202A093A302F5
:101B9000B093A4028CE08093B8000E94B5026091DB
:101BA0001D0270911E02072E000C880B990B0E94DB
:101BB000A11E20911001309111014091120150910C
:101BC00013010E94BC1F0E94691E4B015C017093AF
:101BD0001E0260931D0260911F0270912002072E69
:101BE000000C880B990B0E94A11E209114013091CA
:101BF000150140911601509117010E94BC1F0E94CF
:101C0000691E6B017C017093200260931F0260913A
:101C1000210270912202072E000C880B990B0E9462
:101C2000A11E209118013091190140911A01509183
:101C30001B010E94BC1F0E94691EAB01BC01509396
:101C40002202409321028091130480FF35C08091CD
:101C5000A1029091A202A091A302B091A40280934C
:101C60009D0290939E02A0939F02B093A00207E969
:101C700012E0E1E9F2E080E090E09C0120593A4F67
:101C8000D90118961C921E9217979C012F5E3D4F0A
:101C9000D9011C962D913C911D97D8012D933D9310
:101CA0008D012193319302968630910531F7809111
:101CB00013048E7F80931304809190028823F1F0A7
:101CC0008091770590917805881A990A90921E0262
:101CD00080921D028091790590917A05C81AD90ADF
:101CE000D0922002C0921F0280917B0590917C05CA
:101CF000481B590B509322024093210240919D02B0
:101D000050919E0260919F027091A0024115510571
:101D10006105710509F4D1C48091A1029091A202DC
:101D2000A091A302B091A402841B950BA60BB70B44
:101D30008038934CA94CB14018F51D9A2DE132E042
:101D4000E7E9F2E061E972E0D9018D919D919D0191
:101D5000408151818417950714F491838083DB01BE
:101D60004D915C9111974817590714F48D939C93EA
:101D700032966E5F7F4FB2E0ED39FB0729F79DC4C5
:101D800010929D0210929E0210929F021092A00249
:101D9000E7E9F2E021E932E067E775E0419151912E
:101DA000D9018D919D919D01840F951F95958795E2
:101DB000DB018D939D93BD01B2E0ED39FB0771F717
:101DC0000E9459097AC4209107042F5F20930704C9
:101DD00040911B0350911C0360911D0370911E03E1
:101DE00084179507A607B70708F41AC28059984EBA
:101DF000AF4FBF4F80931B0390931C03A0931D0311
:101E0000B0931E038CE08093B80080911A03811177
:101E10006EC08FEE0E941A020E940B02809315037F
:101E20000E94FC018093140344EF64EF87E70E9453
:101E300036028EEE0E941A0286EF0E94130284E997
:101E40008093BC0081E080931A03E091F90221E0C5
:101E50002E0F253109F420E08091FA029091FB02C7
:101E6000A091FC02B091FD0204E0E09FF00111247A
:101E7000EB55FD4F80839183A283B3834091390357
:101E800050913A0360913B0370913C03840F951F7E
:101E9000A61FB71F14E0219FF0011124EB55FD4F41
:101EA0004081518162817381841B950BA60BB70B16
:101EB0008093390390933A03A0933B03B0933C0380
:101EC0002093F90280911B0390911C03A0911D03A4
:101ED000B0911E03885F9D4AAF4FBF4F80931B0395
:101EE00090931C03A0931D03B0931E03E6C38FEED3
:101EF0000E941A020E940B02809318030E940B0298
:101F0000809317030E94FC01809316030E945002E5
:101F10002091140330911503A90160E070E08091D5
:101F20000803909109039A01AB01281B390B410961
:101F30005109A0910603B09107030E9411216B0182
:101F40007C013FE0F594E794D794C7943A95D1F794
:101F50006091100370911103CB01770FAA0BBB0B9B
:101F6000BC01CD014BE0660F771F881F991F4A9572
:101F7000D1F720911203309113038901330F220B03
:101F8000330BA90198012C0D3D1D4E1D5F1D0E94B4
:101F9000D420C20ED31EE41EF51EAAE0B0E0A701B5
:101FA00096010E941121DC01CB010896A11DB11DF3
:101FB00054E0B595A795979587955A95D1F7809355
:101FC000310390933203A0933303B093340320EA98
:101FD000C21A2FE0D20AE108F108A7019601C70151
:101FE000B6010E947A208B019C016CE03595279503
:101FF000179507956A95D1F70D8F1E8F2F8F38A3F0
:102000008090FE029090FF02A0910203B091030322
:10201000A70196010E941C212B013C017DE07594D3
:102020006794579447947A95D1F7A0910A03B09199
:102030000B032D8D3E8D4F8D58A10E941C21BB2777
:1020400097FDB095AB2F840D951DA61DB71D02966B
:10205000A11DB11DF2E0B595A79597958795FA95C5
:10206000D1F79C01AD0130584F4F5F4FA091040351
:10207000B09105030E9411212B013C01AFE0769441
:10208000679457944794AA95D1F78091160390913D
:102090001703A0911803B09119038C019D01B5E0BD
:1020A0003695279517950795BA95D1F709A31AA3E1
:1020B0002BA33CA3092C000CAA08BB0812E0880C37
:1020C000991CAA1CBB1C1A95D1F7A0910C03B091C6
:1020D0000D032D8D3E8D4F8D58A10E941C218B012B
:1020E0009C018BE035952795179507958A95D1F733
:1020F0000D8F1E8F2F8F38A3A0910003B091010385
:10210000A70196010E941C21DC01CB012BE0B595B3
:10211000A795979587952A95D1F7CD8CDE8CEF8C76
:10212000F8A08C0D9D1DAE1DBF1D880D991DAA1D0B
:10213000BB1D33E0880F991FAA1FBB1F3A95D1F72B
:10214000BC01CD016E5F7F4F8F4F9F4F24E030E089
:1021500040E050E00E94D420E9A0FAA00BA11CA10D
:10216000E21AF30A040B150BA8019701AAE6B8E1DD
:102170000E94112197FD0BC0660F771F881F991FC2
:10218000A30192010E94B22069017A010AC0A30151
:1021900092010E94B22069017A01CC0CDD1CEE1C78
:1021A000FF1C9927F7FC9A958F2D7E2D6D2D9B0195
:1021B000AC010E947A209B01AC01AEEDBBE00E9415
:1021C00011214C01BB2497FCB094AB2CA3E4B3EEDB
:1021D000A70196010E941F21BB2797FDB095AB2F49
:1021E000880E991EAA1EBB1E0FEC800E0EE0901EDC
:1021F000A11CB11C14E0B594A794979487941A95E8
:10220000D1F7C80CD91CEA1CFB1CC092FA02D09270
:10221000FB02E092FC02F092FD0210921A034DC202
:10222000809107048F5F809307040E94DF00209154
:102230003F03309140036B01C21AD30A18EAC1165A
:1022400011E6D10608F434C27093400360933F0353
:1022500000913D0310913E0301151105C1F16091FC
:10226000390370913A0380913B0390913C030E94A3
:10227000A11E0E94741F60933503709336038093F0
:102280003703909338038091310390913203A091EA
:102290003303B0913403BC01CD016D5475498F4FA8
:1022A0009F4F0E94A11E2EE83BE24AEE51E40E949D
:1022B000BC1F60932D0370932E0380932F03909384
:1022C00030030150110910933E0300933D036091C8
:1022D000390370913A0380913B0390913C030E9433
:1022E000A11E0E94741F2B013C0120919E0330917E
:1022F0009F034091A0035091A103A3E0B0E00E948E
:1023000011214B015C01A301920160913503709191
:10231000360380913703909138030E94851D2091E8
:102320002D0330912E0340912F03509130030E94D2
:10233000BC1F0E94691E860E971EA81EB91E880C1F
:10234000991CAA1CBB1CE3E0B594A79497948794AE
:10235000EA95D1F780929E0390929F03A092A003EA
:10236000B092A1038091830390918403A09185038F
:10237000B091860388199909AA09BB09843D2EEFFB
:1023800092072FEFA207B2075CF08D3231E093077E
:10239000A105B1053CF08CE291E0A0E0B0E002C004
:1023A00084ED9EEF9C01275F3F4F2331310548F0BC
:1023B0001816190614F40A9706C0009721F00A9619
:1023C00002C080E090E02091FE04289F7001299FC8
:1023D000F00C1124A701440F452F441F550B47391A
:1023E000510514F046E950E04A36AFEF5A0714F4AD
:1023F0004AE65FEF2091FF04289F7001299FF00CAF
:102400001124C70136E0959587953A95E1F720911B
:10241000290330912A03820F931F8133B5E79B076D
:1024200014F080E395E7803DEAE89E0714F480ED20
:102430009AE890932A0380932903892F990F990B87
:1024400085957A01E80EF91EA0911102B091120251
:1024500020915D0330915E0340915F0350916003D2
:102460000E941C212B013C01A0911302B091140287
:1024700020916103309162034091630350916403A2
:102480000E941C21460E571E681E791EA09115023F
:10249000B091160220916503309166034091670365
:1024A000509168030E941C21640D751D861D971DA7
:1024B0000E94A11E20914D0330914E0340914F0385
:1024C000509150030E94BC1F0E94691E209111046C
:1024D00021FD14C040912703509128039A0193E0F5
:1024E000359527959A95E1F78A01021B130B980100
:1024F000260F371F309328032093270320912703AB
:102500003091280383E0359527958A95E1F7AB0153
:10251000421B530BCA010F964F9750F0BA01141685
:1025200015061CF46051710905C0605F7F4F02C041
:1025300060E070E08091230390912403A091250333
:10254000B0912603A5019401281B390B4A0B5B0BA4
:10255000DA01C90128E2289F8001299F100D11246A
:102560008092230390922403A0922503B092260325
:102570000D3231E0130714F00CE211E0043D4EEF90
:10258000140714F404ED1EEFC8010996439760F098
:10259000101611061CF40A50110908C00115110586
:1025A00029F0065F1F4F02C000E010E0072E000C6C
:1025B000880B990B0E94A11E28EA39E840E056E3F7
:1025C0000E94BC1F4B015C01B60180E090E00E94BC
:1025D0009F1E9B01AC01C501B4010E94BC1F20914C
:1025E0001F033091200340912103509122030E9448
:1025F000861D26EF38E24CE75FE30E94BC1F4B01CB
:102600005C01B801110F880B990B0E94A11E2FE8E5
:1026100032EC45E75CE30E94BC1F9B01AC01C501A5
:10262000B4010E94861D60931F0370932003809362
:102630002103909322030E94691E9B012C5F3F4F50
:102640002930310528F41092A3031092A2030EC082
:102650001616170624F4AB014550510903C0AB010F
:102660004B5F5F4F5093A3034093A203409100053B
:102670002091A2033091A303429FC001439F900D7C
:10268000112404E0959587950A95E1F7873991051E
:1026900014F086E990E08A365FEF950714F48AE635
:1026A0009FEFE81AF90AF0922C03E0922B0305C081
:1026B000809107048F5F8093070426E030E040E5B7
:1026C00051E06BE388E60E945F028091500190E048
:1026D000982F882720915101822B919581959109FE
:1026E000E3E095958795EA95E1F790932A02809328
:1026F00029028091520190E0982F88272091530160
:10270000822B919581959109A3E095958795AA953E
:10271000E1F790932C0280932B028091540190E07A
:10272000982F882720915501822B13E09595879546
:102730001A95E1F790932E0280932D022091BF030A
:102740003091C0032115310509F487C0E1E4F3E0BD
:1027500069E272E041E755E0211582E0380721F493
:102760001082118212821382DB018D919C9111974C
:102770006C01990FEE08FF0880809180A280B380E1
:10278000C80CD91CEA1CFB1CC192D192E192F192B7
:102790001D921D92BD01DA011D921D92AD01B3E0A3
:1027A000ED34FB07C9F62130310509F04DC08091A9
:1027B000410390914203A0914303B09144039F5F72
:1027C000AF4FBF4F49E0B595A795979587954A9527
:1027D000D1F7909372058093710580914503909194
:1027E0004603A0914703B09148039F5FAF4FBF4F8F
:1027F00059E0B595A795979587955A95D1F79093F8
:102800007405809373058091490390914A03A091C8
:102810004B03B0914C039F5FAF4FBF4F69E0B5953D
:10282000A795979587956A95D1F7925090937605DD
:102830008093750510921B0510921A0510921D05C4
:1028400010921C050E9459098091BF039091C0030A
:1028500001979093C0038093BF03809129029091C8
:102860002A022091710530917205821B930B90937F
:102870002A028093290280912B0290912C022091B0
:10288000730530917405821B930B90932C028093F7
:102890002B0280912D0290912E022091750530918E
:1028A0007605821B930B90932E0280932D020E943B
:1028B000DF006B017C018091810390918203B6015E
:1028C000681B790B80E090E00E949F1E29E134E4B0
:1028D00042E951E30E94BC1F2B013C01D0928203CC
:1028E000C09281038E010F5F1F4F1AA309A30CE151
:1028F00011E031E1232E32E0332E3EA22DA2812CB5
:10290000912C5401ADA1BEA152966D917C9153972B
:10291000072E000C880B990B0E94A11EA3019201A7
:102920000E94BC1FE9A1FAA16193719381939193D5
:10293000FAA3E9A3F80180819181A281B3816C019E
:102940007D0114E0F594E794D794C7941A95D1F7D4
:102950009C01AD012C193D094E095F09ADA1BEA135
:1029600058968D919C915997092E000CAA0BBB0B80
:10297000820F931FA41FB51F81939193A193B193CD
:102980008F0124E0B595A795979587952A95D1F75E
:10299000EDA1FEA181939193FEA3EDA39C01DC0127
:1029A0000E94F320860E971EA81EB91EF1E0083281
:1029B0001F0709F0A7CFBE016F5F7F4F85E793E048
:1029C0000E94ED04BE016F5F7F4F89E693E00E9495
:1029D000ED04A4E6B0E0A50194010E94112120E0DD
:1029E00030E044E050E00E94D420690109E4C01ABC
:1029F000D10805E713E06DE5862E63E0962E79E6B3
:102A0000E72E73E0F72EE1E5AE2EE3E0BE2E2CE3D9
:102A1000C216D10440F520E030E046E154E4D8018C
:102A20006D917D918D919C910E94BC1F2B013C0169
:102A3000F10160817181072E000C880B990B0E94B7
:102A4000A11E9B01AC01C301B2010E94861D20E0C2
:102A500037E14AED5AE30E94BC1FD8016D937D9384
:102A60008D939C931397F80161917191819191914C
:102A70008F010E94691ED4016D937D938D939D9368
:102A80004D0120E030E04AE753E4F70160817181B5
:102A9000828193810E94BC1F2B013C01D1011C96B5
:102AA0006D917C911D97072E000C880B990B0E944D
:102AB000A11E9B01AC01C301B2010E94861D20EC46
:102AC0003CE842E85BE30E94BC1FF701619371930D
:102AD000819391937F010E94691ED5016D937D932F
:102AE0008D939D935D01B2E02B0E311CE3E0013824
:102AF0001E0709F08CCF40906503509066036090EC
:102B000067037090680380911204F1ED4F16F1E0B5
:102B10005F0614F0806801C08F7780931204809064
:102B20005D0390905E03A0905F03B0906003A501E9
:102B30009401C501B4010E947A206B017C01A301BC
:102B40009201C301B2010E947A2097018601060F0B
:102B5000171F281F391F09A31AA32BA33CA3C0903A
:102B60006103D0906203E0906303F0906403CD8E24
:102B7000DE8EEF8EF8A2A7019601C701B6010E9472
:102B80007A20E9A0FAA00BA11CA16E0D7F1D801F69
:102B9000911F0E94A11E6DA37EA38FA398A78DA154
:102BA0009EA1AFA1B8A5B595A795979587953FED3F
:102BB000C32E39E5D32E37E3E32E3FE5F32EC81AB3
:102BC000D90AEA0AFB0A20E030E040E05FE3C701EF
:102BD000B6010E94BC1F69A77AA78BA79CA7A70173
:102BE00096016DA17EA18FA198A50E94BC1FA7018F
:102BF00096010E94BC1F9B01AC0160E070E080E484
:102C000090E40E94851D9B01AC0169A57AA58BA566
:102C10009CA50E94BC1F60934D0370934E0380934C
:102C20004F0390935003A3019201C501B4010E9488
:102C3000A0059093FE038093FD0369A17AA18BA167
:102C40009CA10E94A11E6B017C01DC01CB01B5950A
:102C5000A795979587955FED852E59E5952E57E3B6
:102C6000A52E5FE5B52E881A990AAA0ABB0A20E0AC
:102C700030E040E05FE3C501B4010E94BC1F2B01BE
:102C80003C01A5019401C701B6010E94BC1FA5012A
:102C900094010E94BC1F9B01AC0160E070E080E4E5
:102CA00090E40E94851D9B01AC01C301B2010E940A
:102CB000BC1FA70196010E94BC1F0E94691E9B01B8
:102CC000AC016D8D7E8D8F8D98A10E94A005909393
:102CD00000048093FF0310920204109201040E94EA
:102CE0005B078091230290912402988F8F8B8091B3
:102CF0002502909126029A8F898F809127029091C8
:102D000028029C8F8B8F0E94DF006093D503709305
:102D1000D6038093D7039093D80382E480937C00FA
:102D200080917A00806480937A0080917A0086FD99
:102D3000FCCF809178002091790090E0922B9093C5
:102D4000C6038093C50320912C0430912D042D3DA2
:102D500005E03007A4F080911705203D17E031070A
:102D600054F4B9016C5D7540869FA001879F500D9A
:102D70001124852F869590E8992E981A02C090E824
:102D8000992E20901505622C712C46E254E05E8F3E
:102D90004D8FE8E0F4E015EF212E14E0312E5101C3
:102DA00040E050E00CED402E05E0502E80E8882EEB
:102DB000AD8DBE8D6D917D91BE8FAD8F6D3DB5E0BA
:102DC0007B072CF0603D07E070075CF007C0C20194
:102DD000861B970B843F11E0910734F084EF91E05C
:102DE00003C0CB018C5D95404230510509F469C0A8
:102DF0008C01000F012F001F110B1195D801AA0F94
:102E0000BB1FA950BE4FCD90DC90DAA2C9A27801B9
:102E1000EE0CFF1CD701A750BE4FED90FC90EC18B4
:102E2000FD081695102F0027179507956C01C01AFD
:102E3000D10AEC9C8001ED9C100DFC9C100D11241E
:102E4000000F012F001F110B1195C9A0DAA00C0D66
:102E50001D1D11830083869DD001879DB00D969D19
:102E6000B00D11248B2F8695D82CD81AD99CC0016F
:102E70001124880F892F881F990B9195D501FC90FB
:102E8000F89E8001F99E100D1124000F012F001FE4
:102E9000110B1195DA01AD53BC4F0C93D50112966D
:102EA0001C91189FD001199FB00D1124CD01880FDE
:102EB000892F881F990B9195DA01AF53BC4F8C93E2
:102EC00002C0918380836C3D75403CF48081918188
:102ED000919581959109918380834F5F5F4F3296E1
:102EE00003E0A00EB11C4330510509F061CF2C3432
:102EF00014E031073CF0213D47E034072CF020ED91
:102F000037E002C02CE434E02C543440AFEFB9E099
:102F10000E94FB2024E833E040E050E00E94B22011
:102F2000832F9927FC01EE0FFF1FEF51FE4FA08169
:102F3000B181FC01EE0FFF1FED51FE4F60817181E9
:102F40006A1B7B0B982F88278901081B190B609F30
:102F5000C001619F900D709F900D1124892F9927BA
:102F6000AC014A0F5B1F50930F0440930E048091F5
:102F7000580190919901891B8F7308EE13E09FEF20
:102F8000980F882309F4A0C280915701209156011F
:102F9000821B8F778F3408F097C220919901E22F1E
:102FA000F0E0E75AFE4F808130915801321731F03E
:102FB0002F5F203408F020E0209399012091B9037D
:102FC0003091BA032115310529F421E030E0843233
:102FD00071F412C02130310529F48D3441F422E01E
:102FE00030E00AC02230310561F48C3319F020E062
:102FF00030E002C023E030E03093BA032093B903FD
:1030000061C223303105B1F4813428F01092BA0343
:103010001092B90357C28093B8031092B70310926D
:10302000DD018093DE01A4E0B0E0B093BA03A09389
:10303000B90348C22430310571F48093DC0120913A
:10304000DE0182278093DE01E5E0F0E0F093BA0331
:10305000E093B90337C22530310509F033C2E0915E
:10306000B7033091B8032091DE01E31760F42827FD
:103070002093DE0121E02E0F2093B703F0E0E45609
:10308000FE4F80831FC2281318C28091DC0186374F
:1030900009F438C108F042C08D3609F408C118F5AA
:1030A000873609F4F4C098F4853609F4BAC008F0FC
:1030B000EAC0843609F0F4C186EE898383E08A830E
:1030C0001B821C821D821E821F8267E0D5C089364A
:1030D00009F4E9C008F4E3C08C3609F0E1C166E008
:1030E0008DEF93E0DAC1813709F4EDC048F48F36F3
:1030F00009F4E1C008F0E3C067E087E993E0CDC1DF
:10310000833709F4FBC008F460C0843709F4DFC0DA
:10311000853709F0C5C184E191E0DBC08E3C09F43C
:10312000ACC1E0F48A3CD9F188F4883709F4B3C023
:1031300008F4D2C0883C09F0B3C160E187EA93E0AB
:103140000E94260482E38093A603AEC18C3C59F111
:1031500008F087C164E18EE195E028C0833D09F461
:103160005CC040F4803D09F475C118F1813D09F45B
:1031700022C196C1863D09F44CC038F4843D09F063
:103180008FC168E385E395E011C08A3F09F47FC1F0
:103190008E3F09F085C168E085EC93E07EC16EE169
:1031A00085EF94E003C067E083E195E00E94260488
:1031B0007BC166E1CE0101960E94260489899A8925
:1031C00090933405809333056FC11A8219828091E0
:1031D0006D0590916E059C838B833AE3C32E37E097
:1031E000D32EDE82CD8218870F831A8619861C861D
:1031F0001B861D861E861F86188A80913305909136
:1032000034059A8B898B1B8A1C8A1D8A1E8A66E16B
:1032100033C060E181E092E0C9CF62E084EA93E0EC
:10322000C5CF80910304909104049A83898380918F
:103230009A0190919B019C838B832FE0E22EF12CCD
:10324000FE82ED822091110425FF19C082E090E0FA
:10325000A0E0B0E026FD84603091120430FD88606B
:1032600027FD806121FD81608F839887A987BA87B8
:10327000809170058B876BE0CE0101960EC180E0D6
:1032800090E0DC01E7CF62E181E192E006C160E11C
:1032900080E391E002C168E385E395E0FEC060E170
:1032A00081E092E0FAC060E186E294E0F6C066E078
:1032B0008EE993E0F2C067E083E195E0EEC06EE155
:1032C00085EF94E0EAC064E18EE195E0E6C087EE28
:1032D00090E00E94EB03E8C08AE00E94C40390EEF5
:1032E000892E90E0992EF40184910E949603FFEFBD
:1032F0008F1A9F0ACFA4C810F6CFD6C068E088E224
:1033000091E0CBC00E941B04982E82E10E94C4036E
:10331000911011C0C0908F03D0909003E090910362
:10332000F090920340909303509094036090950323
:10333000709096031BC080E1D82E9D1011C0C090E4
:103340008703D0908803E0908903F0908A0340902F
:103350008B0350908C0360908D0370908E0306C099
:10336000412C512C3201C12CD12C7601892D0E9487
:103370009603C701B6010E94FF03C301B2010E9478
:10338000FF03609183037091840380918503909182
:1033900086030E94FF0380E00E94960380E00E9463
:1033A000960380E00E94960380E00E94960380E0EE
:1033B0000E94960379C00E941B0488AB0E945904A6
:1033C0006B017C010E9459042B013C010E945904AD
:1033D0004B015C010E9449040E9449040E941B04A5
:1033E00028A9211117C0C0928F03D0929003E092B8
:1033F0009103F0929203409293035092940360924F
:10340000950370929603809112048D7F806480935F
:10341000120412C02031E9F5C0928703D0928803CC
:10342000E0928903F0928A0340928B0350928C03BE
:1034300060928D0370928E0381149104A104B104F3
:1034400041F18092830390928403A0928503B0920D
:1034500086031FC08091110481FD1BC00E94B60627
:1034600018C08091110481FD14C0E12CB2E0FB2E44
:10347000F092C003E092BF030CC08091110481FD63
:1034800008C08091130481608093130402C00E94DD
:10349000720980E00E94C40307C00E94C80304C0F0
:1034A00060E081E00E94A8038091DE010E94960303
:1034B0008091C10080628093C1001092BA03109283
:1034C000B90390E0892F5BCD8091BF039091C00339
:1034D000892B31F48091DF019091E001892B11F06B
:1034E0001D9A08C08091110483FD2D9880911104CC
:1034F00081FD2D9A40913A0450913B0460913C0427
:1035000070913D048091BB039091BC03A091BD03D9
:10351000B091BE0384179507A607B70710F59091E1
:1035200012048091110497FD19C0877F80931104C4
:103530001D9A80913A0490913B04A0913C04B09173
:103540003D0480569947AE4FBF4F8093BB03909385
:10355000BC03A093BD03B093BE0303C088608093F7
:10356000110410E00E94DF002091D5033091D603B2
:10357000621B730B6A38724010F411E0F3CF111123
:1035800009C08091D3039091D40301969093D40302
:103590008093D3030E945B077E0117E1E10EF11CCB
:1035A000E7E1F2E00DEC13E0A3E0CA2ED12CD70145
:1035B0002D913D917D0184859585280F391FD80176
:1035C0008D919C91820F931FB6010E949E20619362
:1035D000719335952795D8012D933D938D01B2E0D8
:1035E000ED31FB0721F70E94DF0060933A047093EE
:1035F0003B0480933C0490933D042091050430915A
:1036000006046B01C21AD30ADAA2C9A2D09204043A
:10361000C092030470930604609305048091120421
:1036200082FFDAC06091010470910204072E000C41
:10363000880B990B0E94A11E25E33AEF4EE85CE34C
:103640000E94BC1F6B017C010E9429206D8F7E8F20
:103650008F8F98A3C701B6010E94F21D2B013C0178
:103660008090F7039090F8036091FB037091FC0346
:1036700068197909072E000C880B990B0E945106D6
:10368000092C000CAA08BB08462F572FBC014F314C
:1036900051056105710524F04EE150E060E070E0F5
:1036A000423E0FEF50076007700724F442EE5FEFD1
:1036B0006FEF7FEF840E951EA61EB71E9092F80343
:1036C0008092F703C090F503D090F6036091F90360
:1036D0007091FA036C197D09072E000C880B990B69
:1036E0000E9451060D2C000CEE08FF08462F572FA4
:1036F000BC014F3151056105710524F04EE150E0E8
:1037000060E070E0423E1FEF51076107710724F44B
:1037100042EE5FEF6FEF7FEFC40ED51EE61EF71E81
:10372000D092F603C092F503B401990C880B990B63
:103730000E94A11E4B015C01B601DD0C880B990BA8
:103740000E94A11E6B017C01A3019201C501B4017D
:103750000E94BC1F6DA37EA38FA398A72D8D3E8DC5
:103760004F8D58A1C701B6010E94BC1F9B01AC013F
:103770006DA17EA18FA198A50E94851D20E030E05B
:1037800040E251E40E94F71D0E94691E7093F2030B
:103790006093F1032D8D3E8D4F8D58A1C501B4016D
:1037A0000E94BC1F4B015C01A3019201C701B6013D
:1037B0000E94BC1F9B01AC01C501B4010E94861D83
:1037C00020E030E040E251E40E94F71D0E94691EB3
:1037D0007093F4036093F3038FEF9FEF69A17AA1D5
:1037E00024E0769567952A95E1F70E948A207EA7C6
:1037F0006DA738E1A32E34E0B32E4BEE642E43E0E8
:10380000742E55EE452E53E0552E6FED862E63E057
:10381000962E09ED13E01EA30DA300E010E01D8E0F
:103820002D8D2230B9F1F801E85FFB4FA081B18105
:10383000AA0FBB1FF801EF50FC4F80819181A80FA8
:10384000B91FA53F31E0B30714F0A4EFB1E0AC30ED
:103850004EEFB40714F4ACE0BEEFF801E350FC4FB8
:1038600080819181A81BB90BF801EB50FB4F85A11A
:1038700096A1A80FB91F20910A0530E00E940A21E5
:10388000DC01CB01F4E0B595A79597958795FA955E
:10389000D1F714C02091160530E0255E3F4FA0916E
:1038A0000C04B0910D040E94F320DC01CB01E5E093
:1038B000B595A79597958795EA95D1F7FC01D8011D
:1038C000AF5EBD4F16968D919C911797E81BF90B33
:1038D000D101BC91B9A729A13AA1DF010E940A2117
:1038E0009B01AC017BE055954795379527957A95D7
:1038F000D1F7D10111968C91A82FB0E00E9411212F
:10390000D501CD90DD90ED90FC90C60ED71EE81E3F
:10391000F91EB1E0CB16D104B0E2EB06F1042CF0B5
:10392000C12CD12C60E2E62EF12CC114D10420EE82
:10393000E2062FEFF20634F4C12CD12C50EEE52E26
:10394000FF24FA94D501CD92DD92ED92FC9213976B
:10395000D3018D919C9111979F01281B390BC901AF
:10396000ED93FC932DA53EA5DC010E940A219B014D
:10397000AC0196E055954795379527959A95D1F7DF
:1039800029AB3AAB4BAB5CABD2012D913C91D4014E
:103990004D915C911197420F531F89A99AA9480F25
:1039A000591F2D933C93D2018D939C9389A5282F69
:1039B00030E0DF010E940A21DC01CB0127E0B59550
:1039C000A795979587952A95D1F73DE0F594E794CB
:1039D000D794C7943A95D1F7C80ED91ED101129643
:1039E0002C91249FC001259F900D1124892F990FA0
:1039F000990BC80ED91EEDA1FEA1C192D192FEA3D2
:103A0000EDA380910E0490910F0490930202809395
:103A100001028091260490912704909331018093B4
:103A2000300190933301809332018091280490916A
:103A30002904909335018093340180912A04909158
:103A40002B0490933701809336018091110481FDFE
:103A500008C088EEC82E83E0D82ED0920202C09211
:103A600001020E94CF042D8D2F5F2D8F0E5F1F4FFF
:103A700033E0230E311C44E0A40EB11C52E0650E6D
:103A8000711C82E0480E511C92E0890E911C23307B
:103A900009F0C6CE80E090E0892B11F40C94620C02
:103AA0000E9400000C945C0CFC0105900020E9F7DA
:103AB000809590958E0F9F1F0895DC01CB01FC012E
:103AC000F999FECF06C0F2BDE1BDF89A319600B477
:103AD0000D9241505040B8F70895DC01CB0103C06E
:103AE0002D910E94781D41505040D0F70895262F07
:103AF000F999FECF1FBA92BD81BD20BD0FB6F894D3
:103B0000FA9AF99A0FBE019608955058BB27AA2732
:103B10000E949D1D0C941E1F0E94E51E38F00E94FD
:103B2000EC1E20F039F49F3F19F426F40C94E21EA9
:103B30000EF4E095E7FB0C94DC1EE92F0E94431F76
:103B400058F3BA17620773078407950720F079F4D2
:103B5000A6F50C94651F0EF4E0950B2EBA2FA02D40
:103B60000B01B90190010C01CA01A0011124FF272A
:103B7000591B99F0593F50F4503E68F11A16F04025
:103B8000A22F232F342F4427585FF3CF4695379524
:103B90002795A795F0405395C9F77EF41F16BA0BE9
:103BA000620B730B840BBAF09150A1F0FF0FBB1F97
:103BB000661F771F881FC2F70EC0BA0F621F731FE0
:103BC000841F48F4879577956795B795F7959E3F3D
:103BD00008F0B0CF9395880F08F09927EE0F9795CE
:103BE000879508950E94F51EE3950C942F1F0E945F
:103BF0000B1E0C941E1F0E94EC1E58F00E94E51E26
:103C000040F029F45F3F29F00C94DC1E51110C9414
:103C1000661F0C94E21E0E94431F68F39923B1F3C0
:103C2000552391F3951B550BBB27AA2762177307E2
:103C3000840738F09F5F5F4F220F331F441FAA1F76
:103C4000A9F335D00E2E3AF0E0E832D09150504032
:103C5000E695001CCAF72BD0FE2F29D0660F771FE0
:103C6000881FBB1F261737074807AB07B0E809F0C6
:103C7000BB0B802DBF01FF2793585F4F3AF09E3F4B
:103C8000510578F00C94DC1E0C94661F5F3FE4F342
:103C9000983ED4F3869577956795B795F7959F5F8E
:103CA000C9F7880F911D9695879597F90895E1E0DA
:103CB000660F771F881FBB1F621773078407BA0739
:103CC00020F0621B730B840BBA0BEE1F88F7E09594
:103CD00008950E94701E6894B1110C94661F089597
:103CE0000E944B1F88F09F5798F0B92F9927B75122
:103CF000B0F0E1F0660F771F881F991F1AF0BA9590
:103D0000C9F714C0B13091F00E94651FB1E0089569
:103D10000C94651F672F782F8827B85F39F0B93F5B
:103D2000CCF3869577956795B395D9F73EF4909542
:103D30008095709561957F4F8F4F9F4F0895E894C0
:103D400009C097FB3EF490958095709561957F4FE3
:103D50008F4F9F4F9923A9F0F92F96E9BB27939591
:103D6000F695879577956795B795F111F8CFFAF4A1
:103D7000BB0F11F460FF1BC06F5F7F4F8F4F9F4FD2
:103D800016C0882311F096E911C0772321F09EE830
:103D9000872F762F05C0662371F096E8862F70E096
:103DA00060E02AF09A95660F771F881FDAF7880F70
:103DB0009695879597F9089597F99F6780E870E041
:103DC00060E008959FEF80EC089500240A94161691
:103DD000170618060906089500240A9412161306F9
:103DE0001406050608950C94E21E0E944B1FD8F39A
:103DF000E894E0E0BB279F57F0F02AED3FE049EC64
:103E000006C0EE0FBB0F661F771F881F28F0B23A5F
:103E100062077307840728F0B25A620B730B840B96
:103E2000E3959A9572F7803830F49A95BB0F661F28
:103E3000771F881FD2F790480C943320092E0394E3
:103E4000000C11F4882352F0BB0F40F4BF2B11F487
:103E500060FF04C06F5F7F4F8F4F9F4F0895EF93B8
:103E6000E0FF07C0A2EA2AED3FE049EC5FEB0E94C9
:103E70009D1D0E941E1F0F90039401FC9058E8E6C0
:103E8000F0E00C94662057FD9058440F551F59F0F0
:103E90005F3F71F04795880F97FB991F61F09F3F37
:103EA00079F087950895121613061406551FF2CF60
:103EB0004695F1DF08C0161617061806991FF1CFB0
:103EC00086957105610508940895E894BB276627D7
:103ED0007727CB0197F9089516F00C9431200C94B4
:103EE000E21E68940C94DC1E0E944B1FA8F39923D9
:103EF000C1F3AEF3DF93CF931F930F93FF92C92FBC
:103F0000DD2788232AF02197660F771F881FDAF7AD
:103F100020E030E040E85FEB9FE3883920F0803E0E
:103F200038F021968F770E94861DE6E8F0E004C005
:103F30000E94861DE3EBF0E00E943F208B01BE0152
:103F4000EC01FB2E6F5771097595771F880B990B44
:103F50000E94A11E28E132E741E35FE30E94CF1FE8
:103F6000AF2D9801AE01FF900F911F91CF91DF917E
:103F70000E949D1D0C941E1F0E94CF1F0C941E1F9B
:103F80000E94E51E38F00E94EC1E20F0952311F0EF
:103F90000C94DC1E0C94E21E11240C94661F0E94EB
:103FA000431F70F3959FC1F3950F50E0551F629F1B
:103FB000F001729FBB27F00DB11D639FAA27F00D82
:103FC000B11DAA1F649F6627B00DA11D661F829FA9
:103FD0002227B00DA11D621F739FB00DA11D621F8E
:103FE000839FA00D611D221F749F3327A00D611DAB
:103FF000231F849F600D211D822F762F6A2F11248D
:104000009F5750409AF0F1F088234AF0EE0FFF1FBF
:10401000BB1F661F771F881F91505040A9F79E3F16
:10402000510580F00C94DC1E0C94661F5F3FE4F396
:10403000983ED4F3869577956795B795F795E7956C
:104040009F5FC1F7FE2B880F911D9695879597F975
:1040500008959F930E94F51E0F9007FCEE5F0C944D
:104060002F1F9F3F31F0915020F4879577956795EA
:10407000B795880F911D9695879597F90895DF93C9
:10408000CF931F930F93FF92EF92DF927B018C01EE
:10409000689406C0DA2EEF010E94CF1FFE01E8945B
:1040A000A5912591359145915591A6F3EF010E9477
:1040B0009D1DFE019701A801DA9469F7DF90EF904A
:1040C000FF900F911F91CF91DF9108959F938F9350
:1040D0007F936F93FF93EF939B01AC010E94BC1FF2
:1040E000EF91FF910E943F202F913F914F915F915F
:1040F0000C94BC1FDB018F939F930E941121BF91F1
:10410000AF91A29F800D911DA39F900DB29F900D26
:1041100011240895AA1BBB1B51E107C0AA1FBB1F96
:10412000A617B70710F0A61BB70B881F991F5A9543
:10413000A9F780959095BC01CD01089597FB072EB6
:1041400016F4009407D077FD09D00E948A2007FC5E
:1041500005D03EF4909581959F4F08957095619597
:104160007F4F0895A1E21A2EAA1BBB1BFD010DC0B3
:10417000AA1FBB1FEE1FFF1FA217B307E407F50717
:1041800020F0A21BB30BE40BF50B661F771F881FF3
:10419000991F1A9469F760957095809590959B0189
:1041A000AC01BD01CF010895052E97FB1EF40094CC
:1041B0000E94EB2057FD07D00E94B22007FC03D0DD
:1041C0004EF40C94EB2050954095309521953F4F3F
:1041D0004F4F5F4F089590958095709561957F4FF3
:1041E0008F4F9F4F08950E94FB20332312F48A1BA8
:1041F0009B0B0C940C21A29FB001B39FC001A39F05
:10420000700D811D1124911DB29F700D811D11240F
:10421000911D08950E94FB20B7FF0895821B930B08
:1042200008950E94FB20A59F900DB49F900DA49F20
:10423000800D911D11240895B7FF0C9411210E9447
:0C4240001121821B930B0895F894FFCF0E
:10424C00DE05DE05DE05DE05DE05DE05DE05DE054A
:10425C000000803F0000803F0000803F0000000015
:10426C000000000001000000090A0B030E0F100CE7
:10427C00DC05DC05DC05DC05DC05DC05DC05E80320
:10428C00017D041020408004050602070001030094
:107E0000112484B714BE81FFF0D085E080938100F7
:107E100082E08093C00088E18093C10086E0809377
:107E2000C20080E18093C4008EE0C9D0259A86E02C
:107E300020E33CEF91E0309385002093840096BBD3
:107E4000B09BFECF1D9AA8958150A9F7CC24DD24C4
:107E500088248394B5E0AB2EA1E19A2EF3E0BF2EE7
:107E6000A2D0813461F49FD0082FAFD0023811F036
:107E7000013811F484E001C083E08DD089C08234E0
:107E800011F484E103C0853419F485E0A6D080C0E4
:107E9000853579F488D0E82EFF2485D0082F10E0AE
:107EA000102F00270E291F29000F111F8ED06801E7
:107EB0006FC0863521F484E090D080E0DECF843638
:107EC00009F040C070D06FD0082F6DD080E0C81688
:107ED00080E7D80618F4F601B7BEE895C0E0D1E017
:107EE00062D089930C17E1F7F0E0CF16F0E7DF06D8
:107EF00018F0F601B7BEE89568D007B600FCFDCFD4
:107F0000A601A0E0B1E02C9130E011968C91119780
:107F100090E0982F8827822B932B1296FA010C0160
:107F200087BEE89511244E5F5F4FF1E0A038BF0790
:107F300051F7F601A7BEE89507B600FCFDCF97BE46
:107F4000E89526C08437B1F42ED02DD0F82E2BD052
:107F50003CD0F601EF2C8F010F5F1F4F84911BD097
:107F6000EA94F801C1F70894C11CD11CFA94CF0C13
:107F7000D11C0EC0853739F428D08EE10CD085E9AC
:107F80000AD08FE07ACF813511F488E018D01DD067
:107F900080E101D065CF982F8091C00085FFFCCF94
:107FA0009093C60008958091C00087FFFCCF809118
:107FB000C00084FD01C0A8958091C6000895E0E648
:107FC000F0E098E1908380830895EDDF803219F02E
:107FD00088E0F5DFFFCF84E1DECF1F93182FE3DFCA
:107FE0001150E9F7F2DF1F91089580E0E8DFEE27F6
:047FF000FF270994CA
:027FFE00040479
:0400000300007E007B
:00000001FF